{"contracts/ExplorerRegistry.sol":{"ExplorerRegistry":{"abi":[{"inputs":[],"stateMutability":"nonpayable","type":"constructor"},{"inputs":[],"name":"EnforcedPause","type":"error"},{"inputs":[],"name":"ExpectedPause","type":"error"},{"inputs":[{"internalType":"address","name":"owner","type":"address"}],"name":"OwnableInvalidOwner","type":"error"},{"inputs":[{"internalType":"address","name":"account","type":"address"}],"name":"OwnableUnauthorizedAccount","type":"error"},{"inputs":[],"name":"ReentrancyGuardReentrantCall","type":"error"},{"anonymous":false,"inputs":[{"indexed":true,"internalType":"address","name":"contractAddress","type":"address"},{"indexed":false,"internalType":"string","name":"name","type":"string"},{"indexed":false,"internalType":"string","name":"version","type":"string"}],"name":"ContractUpdated","type":"event"},{"anonymous":false,"inputs":[{"indexed":true,"internalType":"address","name":"contractAddress","type":"address"},{"indexed":false,"internalType":"string","name":"name","type":"string"},{"indexed":false,"internalType":"string","name":"version","type":"string"}],"name":"ContractVerified","type":"event"},{"anonymous":false,"inputs":[{"indexed":true,"internalType":"address","name":"targetAddress","type":"address"},{"indexed":false,"internalType":"string","name":"label","type":"string"},{"indexed":false,"internalType":"string","name":"category","type":"string"}],"name":"LabelAdded","type":"event"},{"anonymous":false,"inputs":[{"indexed":true,"internalType":"address","name":"targetAddress","type":"address"},{"indexed":false,"internalType":"string","name":"label","type":"string"},{"indexed":false,"internalType":"string","name":"category","type":"string"}],"name":"LabelUpdated","type":"event"},{"anonymous":false,"inputs":[{"indexed":true,"internalType":"address","name":"previousOwner","type":"address"},{"indexed":true,"internalType":"address","name":"newOwner","type":"address"}],"name":"OwnershipTransferred","type":"event"},{"anonymous":false,"inputs":[{"indexed":false,"internalType":"address","name":"account","type":"address"}],"name":"Paused","type":"event"},{"anonymous":false,"inputs":[{"indexed":true,"internalType":"string","name":"pluginId","type":"string"},{"indexed":true,"internalType":"address","name":"user","type":"address"}],"name":"PluginInstalled","type":"event"},{"anonymous":false,"inputs":[{"indexed":true,"internalType":"string","name":"pluginId","type":"string"},{"indexed":false,"internalType":"string","name":"name","type":"string"},{"indexed":false,"internalType":"address","name":"developer","type":"address"}],"name":"PluginRegistered","type":"event"},{"anonymous":false,"inputs":[{"indexed":true,"internalType":"string","name":"pluginId","type":"string"},{"indexed":true,"internalType":"address","name":"user","type":"address"}],"name":"PluginUninstalled","type":"event"},{"anonymous":false,"inputs":[{"indexed":false,"internalType":"address","name":"account","type":"address"}],"name":"Unpaused","type":"event"},{"inputs":[{"internalType":"string","name":"pluginId","type":"string"}],"name":"activatePlugin","outputs":[],"stateMutability":"nonpayable","type":"function"},{"inputs":[{"internalType":"address","name":"targetAddress","type":"address"},{"internalType":"string","name":"label","type":"string"},{"internalType":"string","name":"category","type":"string"},{"internalType":"string","name":"description","type":"string"}],"name":"addAddressLabel","outputs":[],"stateMutability":"payable","type":"function"},{"inputs":[{"internalType":"address","name":"verifier","type":"address"}],"name":"addVerifier","outputs":[],"stateMutability":"nonpayable","type":"function"},{"inputs":[{"internalType":"address","name":"","type":"address"}],"name":"addressLabels","outputs":[{"internalType":"string","name":"label","type":"string"},{"internalType":"string","name":"category","type":"string"},{"internalType":"string","name":"description","type":"string"},{"internalType":"bool","name":"isVerified","type":"bool"},{"internalType":"address","name":"submitter","type":"address"},{"internalType":"uint256","name":"timestamp","type":"uint256"}],"stateMutability":"view","type":"function"},{"inputs":[{"internalType":"uint256","name":"","type":"uint256"}],"name":"allPluginIds","outputs":[{"internalType":"string","name":"","type":"string"}],"stateMutability":"view","type":"function"},{"inputs":[{"internalType":"address","name":"","type":"address"}],"name":"contracts","outputs":[{"internalType":"string","name":"name","type":"string"},{"internalType":"string","name":"version","type":"string"},{"internalType":"string","name":"sourceCode","type":"string"},{"internalType":"string","name":"abi","type":"string"},{"internalType":"address","name":"deployer","type":"address"},{"internalType":"uint256","name":"deploymentBlock","type":"uint256"},{"internalType":"bool","name":"isVerified","type":"bool"},{"internalType":"bool","name":"isProxy","type":"bool"},{"internalType":"address","name":"implementation","type":"address"}],"stateMutability":"view","type":"function"},{"inputs":[{"internalType":"string","name":"pluginId","type":"string"}],"name":"deactivatePlugin","outputs":[],"stateMutability":"nonpayable","type":"function"},{"inputs":[{"internalType":"address","name":"targetAddress","type":"address"}],"name":"getAddressLabel","outputs":[{"components":[{"internalType":"string","name":"label","type":"string"},{"internalType":"string","name":"category","type":"string"},{"internalType":"string","name":"description","type":"string"},{"internalType":"bool","name":"isVerified","type":"bool"},{"internalType":"address","name":"submitter","type":"address"},{"internalType":"uint256","name":"timestamp","type":"uint256"}],"internalType":"struct ExplorerRegistry.AddressLabel","name":"","type":"tuple"}],"stateMutability":"view","type":"function"},{"inputs":[],"name":"getAllPluginIds","outputs":[{"internalType":"string[]","name":"","type":"string[]"}],"stateMutability":"view","type":"function"},{"inputs":[{"internalType":"address","name":"contractAddress","type":"address"}],"name":"getContractInfo","outputs":[{"components":[{"internalType":"string","name":"name","type":"string"},{"internalType":"string","name":"version","type":"string"},{"internalType":"string","name":"sourceCode","type":"string"},{"internalType":"string","name":"abi","type":"string"},{"internalType":"address","name":"deployer","type":"address"},{"internalType":"uint256","name":"deploymentBlock","type":"uint256"},{"internalType":"bool","name":"isVerified","type":"bool"},{"internalType":"bool","name":"isProxy","type":"bool"},{"internalType":"address","name":"implementation","type":"address"},{"internalType":"string[]","name":"tags","type":"string[]"}],"internalType":"struct ExplorerRegistry.ContractInfo","name":"","type":"tuple"}],"stateMutability":"view","type":"function"},{"inputs":[],"name":"getLabeledAddressesCount","outputs":[{"internalType":"uint256","name":"","type":"uint256"}],"stateMutability":"view","type":"function"},{"inputs":[{"internalType":"address","name":"user","type":"address"}],"name":"getUserInstalledPlugins","outputs":[{"internalType":"string[]","name":"","type":"string[]"}],"stateMutability":"view","type":"function"},{"inputs":[],"name":"getVerifiedContractsCount","outputs":[{"internalType":"uint256","name":"","type":"uint256"}],"stateMutability":"view","type":"function"},{"inputs":[{"internalType":"string","name":"pluginId","type":"string"}],"name":"installPlugin","outputs":[],"stateMutability":"nonpayable","type":"function"},{"inputs":[{"internalType":"string","name":"pluginId","type":"string"},{"internalType":"address","name":"user","type":"address"}],"name":"isPluginInstalledByUser","outputs":[{"internalType":"bool","name":"","type":"bool"}],"stateMutability":"view","type":"function"},{"inputs":[],"name":"labelSubmissionFee","outputs":[{"internalType":"uint256","name":"","type":"uint256"}],"stateMutability":"view","type":"function"},{"inputs":[{"internalType":"uint256","name":"","type":"uint256"}],"name":"labeledAddresses","outputs":[{"internalType":"address","name":"","type":"address"}],"stateMutability":"view","type":"function"},{"inputs":[],"name":"owner","outputs":[{"internalType":"address","name":"","type":"address"}],"stateMutability":"view","type":"function"},{"inputs":[],"name":"pause","outputs":[],"stateMutability":"nonpayable","type":"function"},{"inputs":[],"name":"paused","outputs":[{"internalType":"bool","name":"","type":"bool"}],"stateMutability":"view","type":"function"},{"inputs":[{"internalType":"string","name":"","type":"string"}],"name":"plugins","outputs":[{"internalType":"string","name":"name","type":"string"},{"internalType":"string","name":"version","type":"string"},{"internalType":"string","name":"ipfsHash","type":"string"},{"internalType":"address","name":"developer","type":"address"},{"internalType":"bool","name":"isActive","type":"bool"},{"internalType":"uint256","name":"installCount","type":"uint256"}],"stateMutability":"view","type":"function"},{"inputs":[{"internalType":"string","name":"pluginId","type":"string"},{"internalType":"string","name":"name","type":"string"},{"internalType":"string","name":"version","type":"string"},{"internalType":"string","name":"ipfsHash","type":"string"}],"name":"registerPlugin","outputs":[],"stateMutability":"nonpayable","type":"function"},{"inputs":[{"internalType":"address","name":"verifier","type":"address"}],"name":"removeVerifier","outputs":[],"stateMutability":"nonpayable","type":"function"},{"inputs":[],"name":"renounceOwnership","outputs":[],"stateMutability":"nonpayable","type":"function"},{"inputs":[{"internalType":"uint256","name":"newFee","type":"uint256"}],"name":"setLabelSubmissionFee","outputs":[],"stateMutability":"nonpayable","type":"function"},{"inputs":[{"internalType":"uint256","name":"newFee","type":"uint256"}],"name":"setVerificationFee","outputs":[],"stateMutability":"nonpayable","type":"function"},{"inputs":[{"internalType":"address","name":"newOwner","type":"address"}],"name":"transferOwnership","outputs":[],"stateMutability":"nonpayable","type":"function"},{"inputs":[{"internalType":"string","name":"pluginId","type":"string"}],"name":"uninstallPlugin","outputs":[],"stateMutability":"nonpayable","type":"function"},{"inputs":[],"name":"unpause","outputs":[],"stateMutability":"nonpayable","type":"function"},{"inputs":[{"internalType":"address","name":"","type":"address"},{"internalType":"uint256","name":"","type":"uint256"}],"name":"userInstalledPlugins","outputs":[{"internalType":"string","name":"","type":"string"}],"stateMutability":"view","type":"function"},{"inputs":[],"name":"verificationFee","outputs":[{"internalType":"uint256","name":"","type":"uint256"}],"stateMutability":"view","type":"function"},{"inputs":[{"internalType":"uint256","name":"","type":"uint256"}],"name":"verifiedContracts","outputs":[{"internalType":"address","name":"","type":"address"}],"stateMutability":"view","type":"function"},{"inputs":[{"internalType":"address","name":"","type":"address"}],"name":"verifiers","outputs":[{"internalType":"bool","name":"","type":"bool"}],"stateMutability":"view","type":"function"},{"inputs":[{"internalType":"address","name":"contractAddress","type":"address"},{"internalType":"string","name":"name","type":"string"},{"internalType":"string","name":"version","type":"string"},{"internalType":"string","name":"sourceCode","type":"string"},{"internalType":"string","name":"abi","type":"string"},{"internalType":"bool","name":"isProxy","type":"bool"},{"internalType":"address","name":"implementation","type":"address"},{"internalType":"string[]","name":"tags","type":"string[]"}],"name":"verifyContract","outputs":[],"stateMutability":"payable","type":"function"},{"inputs":[],"name":"withdraw","outputs":[],"stateMutability":"nonpayable","type":"function"}],"evm":{"bytecode":{"linkReferences":{},"object":"608080604052346100ab5733156100955760008054336001600160a01b0319821681178355604080519390929091906001600160a01b03167f8be0079c531659141344cd1fd0a4f28419497f9722a3daafe3b4186f6b6457e08380a360018055662386f26fc10000600b5566038d7ea4c68000600c55338152600660205220600160ff198254161790556125c690816100b18239f35b631e4fbdf760e01b815260006004820152602490fd5b600080fdfe6080604052600436101561001257600080fd5b60003560e01c80630e2b40d414611f2f57806311f1675c14611ed45780632af16d6a14611d925780633ccfd60b14611cb65780633e7d515814611c685780633f4ba83a14611bfe57806340c89eff146119a45780635c975abb1461198157806369363f2a146118e157806369dc9ff3146117cb5780636c8244871461178c578063715018a614611733578063798b4c571461168f57806383b1189f146116345780638456cb59146115da5780638da43939146115bc5780638da5cb5b146115935780639000b3d61461154e578063902be8941461150c57806396ce26741461121f5780639e9afb50146111fe578063a0cdf1a514610f93578063a8c278a214610f75578063aa61b60c14610a38578063aae9d5f214610a17578063b911f62c146109f9578063bb17754e14610704578063bbe35257146106e6578063bdc2b55b1461065f578063ca2dfd0a1461061d578063cb2825de14610593578063cd481e5114610384578063ddd97a0214610312578063f2fde38b146102845763fa6ed04a1461019d57600080fd5b3461027f57602036600319011261027f576102456001600160a01b03806101c261209f565b1660005260046020526040600020604051916101e9836101e28185612194565b0384611fb7565b60405190610205826101fe8160018701612194565b0383611fb7565b6102616040516102238161021c8160028901612194565b0382611fb7565b610253600460038701549601549460405198899860c08a5260c08a01906120d8565b9088820360208a01526120d8565b9086820360408801526120d8565b9260ff81161515606086015260081c16608084015260a08301520390f35b600080fd5b3461027f57602036600319011261027f5761029d61209f565b6102a56124fb565b6001600160a01b039081169081156102f957600054826bffffffffffffffffffffffff60a01b821617600055167f8be0079c531659141344cd1fd0a4f28419497f9722a3daafe3b4186f6b6457e0600080a3005b604051631e4fbdf760e01b815260006004820152602490fd5b3461027f57602036600319011261027f576004356001600160401b03811161027f5761036460206103496003933690600401611ff3565b6103516124fb565b81604051938285809451938492016120b5565b60059082019081520301902001805460ff60a01b1916600160a01b179055005b3461027f57602036600319011261027f5761039d61209f565b60606101206040516103ae81611f9b565b828152826020820152826040820152828082015260006080820152600060a0820152600060c0820152600060e08201526000610100820152015260018060a01b0316600052600360205261058f60406000206104bd60076040519261041284611f9b565b6040516104238161021c8185612194565b84526040516104398161021c8160018601612194565b60208501526040516104528161021c8160028601612194565b604085015260405161046b8161021c8160038601612194565b606085015260048101546001600160a01b039081166080860152600582015460a0860152600682015460ff808216151560c0880152600882901c16151560e087015260101c1661010085015201612241565b6101208201526040519182916020835261012061053361051d6105076104f1855161014060208a01526101608901906120d8565b6020860151888203601f190160408a01526120d8565b6040850151878203601f190160608901526120d8565b6060840151868203601f190160808801526120d8565b9160018060a01b0360808201511660a086015260a081015160c086015260c0810151151560e086015260e0810151151561010086015260018060a01b0361010082015116828601520151601f19848303016101408501526120fd565b0390f35b3461027f57604036600319011261027f576105ac61209f565b6001600160a01b0316600090815260076020526040902080546024359081101561027f576105d991612087565b6106075761021c6105f361058f9260405192838092612194565b6040519182916020835260208301906120d8565b634e487b7160e01b600052600060045260246000fd5b3461027f57602036600319011261027f5761063661209f565b61063e6124fb565b6001600160a01b03166000908152600660205260409020805460ff19169055005b3461027f57604036600319011261027f576004356001600160401b03811161027f5761068f903690600401611ff3565b6024356001600160a01b038116919082900361027f576106c0602060059281604051938285809451938492016120b5565b8101848152030190200190600052602052602060ff604060002054166040519015158152f35b3461027f57600036600319011261027f576020600c54604051908152f35b608036600319011261027f5761071861209f565b6024906001600160401b03823581811161027f5761073a903690600401611ff3565b60443582811161027f57610752903690600401611ff3565b9160643590811161027f5761076b903690600401611ff3565b610773612527565b6001600160a01b039384169384156109c35782511561098e57806000541633141580610975575b61092e575b8460005260046020526040600020906107dd6107bb835461215a565b15936107c78685612306565b6107d48760018601612306565b60028401612306565b33600052600660205260ff60406000205416908115610920575b506003820180546001600160a81b03191691151560ff16919091173360081b610100600160a81b031617905542600490910155156108ed57600a54600160401b8110156108d8576001810180600a558110156108c3577f5db15fcdd11da222e171871a09433abcc57acf09855fe9234b3bd1b1ae536b33939450600a6000527fc65a7bb8d6351c1cf70c95a316cc6a92839c986682d98bc35f958f4883f9d2a801846bffffffffffffffffffffffff60a01b8254161790556108be604051928392836124d3565b0390a2005b84634e487b7160e01b60005260326004526000fd5b84634e487b7160e01b60005260416004526000fd5b7fc74dc180a9bdc2906bcf486fb58e48fad171eb8f3f77b3836318dd20daba5a0b9293506108be604051928392836124d3565b9050600054163314876107f7565b600c5434101561079f5760405162461bcd60e51b81526020600482015260168188015275496e73756666696369656e74206c6162656c2066656560501b6044820152606490fd5b5033600052600660205260ff604060002054161561079a565b60405162461bcd60e51b815260206004820152600e818801526d131858995b081c995c5d5a5c995960921b6044820152606490fd5b60405162461bcd60e51b815260206004820152600f818801526e496e76616c6964206164647265737360881b6044820152606490fd5b3461027f57600036600319011261027f576020600a54604051908152f35b3461027f57602036600319011261027f57610a306124fb565b600435600b55005b61010036600319011261027f57610a4d61209f565b6024356001600160401b03811161027f57610a6c903690600401611ff3565b906044356001600160401b03811161027f57610a8c903690600401611ff3565b6064356001600160401b03811161027f57610aab903690600401611ff3565b6084356001600160401b03811161027f57610aca903690600401611ff3565b9060a43591821515830361027f5760c4356001600160a01b038116900361027f576001600160401b0360e4351161027f5736602360e43501121561027f5760e4356004013592610b198461222a565b91610b276040519384611fb7565b8483526020830180953660248260051b60e43501011161027f57602460e43501915b60248260051b60e43501018310610f405750505033600052600660205260ff604060002054168015610f2c575b15610ee757610b83612527565b6001600160a01b03871615610ea257875115610e6d57835115610e31576000546001600160a01b03163303610de2575b610bfa9060018060a01b0388166000526003602052610bf1604060002095610bdb8b88612306565b610be88960018901612306565b60028701612306565b60038501612306565b6004830180546001600160a01b0319163317905543600584015560068301805491151560081b61ff00166001600160b01b03199092169190911760c43560101b62010000600160b01b03161760011790555191600160401b8311610d36576007820154836007840155808410610d69575b50600790910160005260206000206000915b838310610d4c5750505050610c9182612545565b15610cd1575b7f9886278bb59c8848a4eefd096eea7469f3fdc0106ee5873f9c82dfd0035c6524916108be60405192839260018060a01b031695836124d3565b60095491600160401b831015610d3657610d128360017f9886278bb59c8848a4eefd096eea7469f3fdc0106ee5873f9c82dfd0035c6524950160095561203a565b81546001600160a01b0384811660039390931b92831b921b19161790559150610c97565b634e487b7160e01b600052604160045260246000fd5b6001602082610d5d83945186612306565b01920192019190610c7d565b600783016000526020600020908482015b8183018110610d8a575050610c6b565b80610d976001925461215a565b80610da4575b5001610d7a565b601f908181118414610dbd575050600081555b8a610d9d565b610dd960009284845260208420920160051c82018583016122a8565b81835555610db7565b600b54341015610bb35760405162461bcd60e51b815260206004820152601d60248201527f496e73756666696369656e7420766572696669636174696f6e206665650000006044820152606490fd5b60405162461bcd60e51b815260206004820152601460248201527314dbdd5c98d94818dbd919481c995c5d5a5c995960621b6044820152606490fd5b60405162461bcd60e51b815260206004820152600d60248201526c13985b59481c995c5d5a5c9959609a1b6044820152606490fd5b60405162461bcd60e51b815260206004820152601860248201527f496e76616c696420636f6e7472616374206164647265737300000000000000006044820152606490fd5b60405162461bcd60e51b815260206004820152601760248201527f4e6f7420617574686f72697a65642076657269666965720000000000000000006044820152606490fd5b506000546001600160a01b03163314610b76565b8235906001600160401b03821161027f5760208091610f6860249485369160e4350101611ff3565b8152019301929050610b49565b3461027f57600036600319011261027f576020600b54604051908152f35b3461027f5760208060031936011261027f576004356001600160401b03811161027f57610fc4903690600401611ff3565b9060405182519180840192610fda8184866120b5565b820182826005948386809552030190200133600052815260ff60406000205416156111c357816040518281875161101281838a6120b5565b81018481520301902001336000528152604060002060ff19815416905560046040518281875161104381838a6120b5565b810186815203019020019081549182156111a1576000198093019055336000526007815260406000209160005b8354808210156111b75761021c61109761108a8488612087565b5060405192838092612194565b84815191012088518820146110af5750600101611070565b909180939495965081019081116111a1576110cd6110d59186612087565b509185612087565b919091610607576110e5916123f5565b8254801561118b5701926110f98484612087565b9190916106075761110a825461215a565b9081611148575b50505050555b61112133916123d5565b7fadd754113c745e60b5ace67813cc58d6f782a1c79bcf6bb24193c0ffcad5ce6b600080a3005b600093601f908184116001146111675750505050555b83808080611111565b91611184918593879596865285209501901c8401600185016122a8565b555561115e565b634e487b7160e01b600052603160045260246000fd5b634e487b7160e01b600052601160045260246000fd5b50505050505050611117565b6064906040519062461bcd60e51b825260048201526014602482015273141b1d59da5b881b9bdd081a5b9cdd185b1b195960621b6044820152fd5b3461027f57602036600319011261027f576112176124fb565b600435600c55005b3461027f57608036600319011261027f576001600160401b0360043581811161027f57611250903690600401611ff3565b6024803583811161027f57611269903690600401611ff3565b9260443581811161027f57611282903690600401611ff3565b9060643590811161027f5761129b903690600401611ff3565b6112a3612527565b8351156114d3578451156114985780511561145f57604051845190600360208701926112d08184866120b5565b600590830190815282900360200190912001546001600160a01b0316611423579161133a6004926113316113136020600097604051809381928d519283916120b5565b81016005815203019020936113288a86612306565b60018501612306565b60028301612306565b6003810180546001600160a81b0319163360ff60a01b191617600160a01b179055015560085490600160401b82101561140f5760018201806008558210156113fb57506113db826113d67fa4d72e45e821eeb19afeba623a417ea96006687ab2e19719dfaaac1e0b287902946113f09460086000527ff3f7a9fe364faab93b216da50a3214154f22a0a2b415b23a84c8169e8b636ee301612306565b6123d5565b926040519182916040835260408301906120d8565b3360208301520390a2005b634e487b7160e01b60009081526032600452fd5b634e487b7160e01b60009081526041600452fd5b60405162461bcd60e51b81526020600482015260158186015274506c7567696e20616c72656164792065786973747360581b6044820152606490fd5b60405162461bcd60e51b8152602060048201526012818501527112541194c81a185cda081c995c5d5a5c995960721b6044820152606490fd5b60405162461bcd60e51b81526020600482015260148185015273141b1d59da5b881b985b59481c995c5d5a5c995960621b6044820152606490fd5b60405162461bcd60e51b81526020600482015260128185015271141b1d59da5b881251081c995c5d5a5c995960721b6044820152606490fd5b3461027f57602036600319011261027f5760043560095481101561027f5761153560209161203a565b905460405160039290921b1c6001600160a01b03168152f35b3461027f57602036600319011261027f5761156761209f565b61156f6124fb565b6001600160a01b03166000908152600660205260409020805460ff19166001179055005b3461027f57600036600319011261027f576000546040516001600160a01b039091168152602090f35b3461027f57600036600319011261027f576020600954604051908152f35b3461027f57600036600319011261027f576115f36124fb565b6115fb612527565b600160ff1960025416176002557f62e78cea01bee320cd4e420270b5ea74000d11b0c9f74754ebdbfc544b05a2586020604051338152a1005b3461027f57602036600319011261027f5760043560085481101561027f5761021c6105f361058f926008600052604051928380927ff3f7a9fe364faab93b216da50a3214154f22a0a2b415b23a84c8169e8b636ee301612194565b3461027f57602036600319011261027f576004356001600160401b03811161027f576116c76020610351610245933690600401611ff3565b81016005815203019020604051906116e3826101fe8184612194565b6040516116f78161021c8160018601612194565b60ff6117106040516102238161021c8160028901612194565b9260018060a01b038116606086015260a01c161515608084015260a08301520390f35b3461027f57600036600319011261027f5761174c6124fb565b600080546001600160a01b0319811682556001600160a01b03167f8be0079c531659141344cd1fd0a4f28419497f9722a3daafe3b4186f6b6457e08280a3005b3461027f57602036600319011261027f576001600160a01b036117ad61209f565b166000526006602052602060ff604060002054166040519015158152f35b3461027f57602036600319011261027f576118856001600160a01b03806117f061209f565b166000526003602052604060002060405191611810836101e28185612194565b6040516118248161021c8160018701612194565b60405192611840846118398160028501612194565b0385611fb7565b6118af6040516118578161021c8160038701612194565b6118a1856004850154169661189360066005870154960154966040519b8c9b8c6101208091528d01906120d8565b908b820360208d01526120d8565b9089820360408b01526120d8565b9087820360608901526120d8565b93608086015260a085015260ff8116151560c085015260ff8160081c16151560e085015260101c166101008301520390f35b3461027f57600036600319011261027f576008546118fe8161222a565b61190b6040519182611fb7565b8181526020916020820160086000527ff3f7a9fe364faab93b216da50a3214154f22a0a2b415b23a84c8169e8b636ee3936000915b83831061195d576040516020808252819061058f908201886120fd565b60018281926040516119738161021c818d612194565b815201960192019194611940565b3461027f57600036600319011261027f57602060ff600254166040519015158152f35b3461027f5760208060031936011261027f576004356001600160401b03811161027f576119d5903690600401611ff3565b906119de612527565b604051825190828401916119f38183856120b5565b60059082018181528290038401909120600301546001600160a01b031615611bc15760ff600360405185818851611a2b81838a6120b5565b810186815203019020015460a01c1615611b85578060405184818751611a528183896120b5565b8101848152030190200133600052835260ff60406000205416611b40578260049282611abb9360405184818a51611a8a8183896120b5565b810184815203019020013360005283526040600020600160ff198254161790556040518094819389519283916120b5565b820190815203019020018054919060001983146111a1576001600793019055336000525260406000208054600160401b811015610d3657611b0191600182018155612087565b6106075781611b0f91612306565b611b1933916123d5565b7f66ac3c2f4044991a7e2c74d68520b04a46c2c1476aef8e1d67fa99dd83414015600080a3005b60405162461bcd60e51b815260048101849052601860248201527f506c7567696e20616c726561647920696e7374616c6c656400000000000000006044820152606490fd5b60405162461bcd60e51b8152600481018490526014602482015273506c7567696e206973206e6f742061637469766560601b6044820152606490fd5b60405162461bcd60e51b8152600481018490526015602482015274141b1d59da5b88191bd95cc81b9bdd08195e1a5cdd605a1b6044820152606490fd5b3461027f57600036600319011261027f57611c176124fb565b60025460ff811615611c565760ff19166002557f5db9ee0a495bf2e6ff9c91a7834c1ba4fdd244a5e8aa4e537bd38aeae4b073aa6020604051338152a1005b604051638dfc202b60e01b8152600490fd5b3461027f57602036600319011261027f576001600160a01b03611c8961209f565b16600052600760205261058f611ca26040600020612241565b6040519182916020835260208301906120fd565b3461027f57600036600319011261027f57611ccf6124fb565b478015611d565760008080809360018060a01b038254165af13d15611d51573d611cf881611fd8565b90611d066040519283611fb7565b8152600060203d92013e5b15611d1857005b60405162461bcd60e51b815260206004820152601160248201527015da5d1a191c985dd85b0819985a5b1959607a1b6044820152606490fd5b611d11565b60405162461bcd60e51b81526020600482015260146024820152734e6f2066756e647320746f20776974686472617760601b6044820152606490fd5b3461027f5760208060031936011261027f57611dac61209f565b90604051611db981611f80565b600060a060609283815283858201528360408201528284820152826080820152015260018060a01b038093166000526004825260406000209060405193611dff85611f80565b604051611e108161021c8187612194565b8552604051611e268161021c8160018801612194565b848601908152611eba604051611e438161021c8160028a01612194565b604088019081526003860154926004868a019760ff8616151589528660808c019660081c16865201549560a08a01968752611eaa611e948a60c06040519d8e9d8e5251918d015260e08c01906120d8565b925192601f1993848c83030160408d01526120d8565b92519189840301908901526120d8565b935115156080860152511660a08401525160c08301520390f35b3461027f57602036600319011261027f57600435600a5481101561027f57600a6000527fc65a7bb8d6351c1cf70c95a316cc6a92839c986682d98bc35f958f4883f9d2a801546040516001600160a01b039091168152602090f35b3461027f57602036600319011261027f576004356001600160401b03811161027f57611f6660206103496003933690600401611ff3565b60059082019081520301902001805460ff60a01b19169055005b60c081019081106001600160401b03821117610d3657604052565b61014081019081106001600160401b03821117610d3657604052565b90601f801991011681019081106001600160401b03821117610d3657604052565b6001600160401b038111610d3657601f01601f191660200190565b81601f8201121561027f5780359061200a82611fd8565b926120186040519485611fb7565b8284526020838301011161027f57816000926020809301838601378301015290565b6009548110156120715760096000527f6e1540171b6c0c960b71a7020d9f60077f6af931a8bbf590da0223dacf75c7af0190600090565b634e487b7160e01b600052603260045260246000fd5b80548210156120715760005260206000200190600090565b600435906001600160a01b038216820361027f57565b60005b8381106120c85750506000910152565b81810151838201526020016120b8565b906020916120f1815180928185528580860191016120b5565b601f01601f1916010190565b90808251908181526020809101926020808460051b8301019501936000915b84831061212c5750505050505090565b909192939495848061214a600193601f198682030187528a516120d8565b980193019301919493929061211c565b90600182811c9216801561218a575b602083101461217457565b634e487b7160e01b600052602260045260246000fd5b91607f1691612169565b8054600093926121a38261215a565b9182825260209360019160018116908160001461220b57506001146121ca575b5050505050565b90939495506000929192528360002092846000945b8386106121f7575050505001019038808080806121c3565b8054858701830152940193859082016121df565b60ff19168685015250505090151560051b0101915038808080806121c3565b6001600160401b038111610d365760051b60200190565b90815461224d8161222a565b9260409361225e6040519182611fb7565b82815280946020809201926000526020600020906000935b85851061228557505050505050565b6001848192845161229a8161021c818a612194565b815201930194019391612276565b8181106122b3575050565b600081556001016122a8565b9190601f81116122ce57505050565b6122fa926000526020600020906020601f840160051c830193106122fc575b601f0160051c01906122a8565b565b90915081906122ed565b91909182516001600160401b038111610d365761232d81612327845461215a565b846122bf565b602080601f831160011461237057508190612361939495600092612365575b50508160011b916000199060031b1c19161790565b9055565b01519050388061234c565b90601f19831695846000526020600020926000905b8882106123bd575050836001959697106123a4575b505050811b019055565b015160001960f88460031b161c1916905538808061239a565b80600185968294968601518155019501930190612385565b6123ed906020604051928284809451938492016120b5565b810103902090565b908082146124cf57612407815461215a565b906001600160401b038211610d365761242a82612424855461215a565b856122bf565b600090601f83116001146124655761236192916000918361245a5750508160011b916000199060031b1c19161790565b01549050388061234c565b815260208082208483528183209291601f1985169083905b8282106124b657505090846001959493921061249d57505050811b019055565b015460001960f88460031b161c1916905538808061239a565b849581929585015481556001809101960194019061247d565b5050565b90916124ea6124f8936040845260408401906120d8565b9160208184039101526120d8565b90565b6000546001600160a01b0316330361250f57565b60405163118cdaa760e01b8152336004820152602490fd5b60ff6002541661253357565b60405163d93c066560e01b8152600490fd5b6009549060005b82811061255b57505050600090565b6125648161203a565b905460039190911b1c6001600160a01b03908116908316146125885760010161254c565b50505060019056fea26469706673582212208fc6ca53dde4703a2bebbd0746eefb211652315bb95f97627b27057a9b1ff03a64736f6c63430008180033","opcodes":"PUSH1 0x80 DUP1 PUSH1 0x40 MSTORE CALLVALUE PUSH2 0xAB JUMPI CALLER ISZERO PUSH2 0x95 JUMPI PUSH1 0x0 DUP1 SLOAD CALLER PUSH1 0x1 PUSH1 0x1 PUSH1 0xA0 SHL SUB NOT DUP3 AND DUP2 OR DUP4 SSTORE PUSH1 0x40 DUP1 MLOAD SWAP4 SWAP1 SWAP3 SWAP1 SWAP2 SWAP1 PUSH1 0x1 PUSH1 0x1 PUSH1 0xA0 SHL SUB AND PUSH32 0x8BE0079C531659141344CD1FD0A4F28419497F9722A3DAAFE3B4186F6B6457E0 DUP4 DUP1 LOG3 PUSH1 0x1 DUP1 SSTORE PUSH7 0x2386F26FC10000 PUSH1 0xB SSTORE PUSH7 0x38D7EA4C68000 PUSH1 0xC SSTORE CALLER DUP2 MSTORE PUSH1 0x6 PUSH1 0x20 MSTORE KECCAK256 PUSH1 0x1 PUSH1 0xFF NOT DUP3 SLOAD AND OR SWAP1 SSTORE PUSH2 0x25C6 SWAP1 DUP2 PUSH2 0xB1 DUP3 CODECOPY RETURN JUMPDEST PUSH4 0x1E4FBDF7 PUSH1 0xE0 SHL DUP2 MSTORE PUSH1 0x0 PUSH1 0x4 DUP3 ADD MSTORE PUSH1 0x24 SWAP1 REVERT JUMPDEST PUSH1 0x0 DUP1 REVERT INVALID PUSH1 0x80 PUSH1 0x40 MSTORE PUSH1 0x4 CALLDATASIZE LT ISZERO PUSH2 0x12 JUMPI PUSH1 0x0 DUP1 REVERT JUMPDEST PUSH1 0x0 CALLDATALOAD PUSH1 0xE0 SHR DUP1 PUSH4 0xE2B40D4 EQ PUSH2 0x1F2F JUMPI DUP1 PUSH4 0x11F1675C EQ PUSH2 0x1ED4 JUMPI DUP1 PUSH4 0x2AF16D6A EQ PUSH2 0x1D92 JUMPI DUP1 PUSH4 0x3CCFD60B EQ PUSH2 0x1CB6 JUMPI DUP1 PUSH4 0x3E7D5158 EQ PUSH2 0x1C68 JUMPI DUP1 PUSH4 0x3F4BA83A EQ PUSH2 0x1BFE JUMPI DUP1 PUSH4 0x40C89EFF EQ PUSH2 0x19A4 JUMPI DUP1 PUSH4 0x5C975ABB EQ PUSH2 0x1981 JUMPI DUP1 PUSH4 0x69363F2A EQ PUSH2 0x18E1 JUMPI DUP1 PUSH4 0x69DC9FF3 EQ PUSH2 0x17CB JUMPI DUP1 PUSH4 0x6C824487 EQ PUSH2 0x178C JUMPI DUP1 PUSH4 0x715018A6 EQ PUSH2 0x1733 JUMPI DUP1 PUSH4 0x798B4C57 EQ PUSH2 0x168F JUMPI DUP1 PUSH4 0x83B1189F EQ PUSH2 0x1634 JUMPI DUP1 PUSH4 0x8456CB59 EQ PUSH2 0x15DA JUMPI DUP1 PUSH4 0x8DA43939 EQ PUSH2 0x15BC JUMPI DUP1 PUSH4 0x8DA5CB5B EQ PUSH2 0x1593 JUMPI DUP1 PUSH4 0x9000B3D6 EQ PUSH2 0x154E JUMPI DUP1 PUSH4 0x902BE894 EQ PUSH2 0x150C JUMPI DUP1 PUSH4 0x96CE2674 EQ PUSH2 0x121F JUMPI DUP1 PUSH4 0x9E9AFB50 EQ PUSH2 0x11FE JUMPI DUP1 PUSH4 0xA0CDF1A5 EQ PUSH2 0xF93 JUMPI DUP1 PUSH4 0xA8C278A2 EQ PUSH2 0xF75 JUMPI DUP1 PUSH4 0xAA61B60C EQ PUSH2 0xA38 JUMPI DUP1 PUSH4 0xAAE9D5F2 EQ PUSH2 0xA17 JUMPI DUP1 PUSH4 0xB911F62C EQ PUSH2 0x9F9 JUMPI DUP1 PUSH4 0xBB17754E EQ PUSH2 0x704 JUMPI DUP1 PUSH4 0xBBE35257 EQ PUSH2 0x6E6 JUMPI DUP1 PUSH4 0xBDC2B55B EQ PUSH2 0x65F JUMPI DUP1 PUSH4 0xCA2DFD0A EQ PUSH2 0x61D JUMPI DUP1 PUSH4 0xCB2825DE EQ PUSH2 0x593 JUMPI DUP1 PUSH4 0xCD481E51 EQ PUSH2 0x384 JUMPI DUP1 PUSH4 0xDDD97A02 EQ PUSH2 0x312 JUMPI DUP1 PUSH4 0xF2FDE38B EQ PUSH2 0x284 JUMPI PUSH4 0xFA6ED04A EQ PUSH2 0x19D JUMPI PUSH1 0x0 DUP1 REVERT JUMPDEST CALLVALUE PUSH2 0x27F JUMPI PUSH1 0x20 CALLDATASIZE PUSH1 0x3 NOT ADD SLT PUSH2 0x27F JUMPI PUSH2 0x245 PUSH1 0x1 PUSH1 0x1 PUSH1 0xA0 SHL SUB DUP1 PUSH2 0x1C2 PUSH2 0x209F JUMP JUMPDEST AND PUSH1 0x0 MSTORE PUSH1 0x4 PUSH1 0x20 MSTORE PUSH1 0x40 PUSH1 0x0 KECCAK256 PUSH1 0x40 MLOAD SWAP2 PUSH2 0x1E9 DUP4 PUSH2 0x1E2 DUP2 DUP6 PUSH2 0x2194 JUMP JUMPDEST SUB DUP5 PUSH2 0x1FB7 JUMP JUMPDEST PUSH1 0x40 MLOAD SWAP1 PUSH2 0x205 DUP3 PUSH2 0x1FE DUP2 PUSH1 0x1 DUP8 ADD PUSH2 0x2194 JUMP JUMPDEST SUB DUP4 PUSH2 0x1FB7 JUMP JUMPDEST PUSH2 0x261 PUSH1 0x40 MLOAD PUSH2 0x223 DUP2 PUSH2 0x21C DUP2 PUSH1 0x2 DUP10 ADD PUSH2 0x2194 JUMP JUMPDEST SUB DUP3 PUSH2 0x1FB7 JUMP JUMPDEST PUSH2 0x253 PUSH1 0x4 PUSH1 0x3 DUP8 ADD SLOAD SWAP7 ADD SLOAD SWAP5 PUSH1 0x40 MLOAD SWAP9 DUP10 SWAP9 PUSH1 0xC0 DUP11 MSTORE PUSH1 0xC0 DUP11 ADD SWAP1 PUSH2 0x20D8 JUMP JUMPDEST SWAP1 DUP9 DUP3 SUB PUSH1 0x20 DUP11 ADD MSTORE PUSH2 0x20D8 JUMP JUMPDEST SWAP1 DUP7 DUP3 SUB PUSH1 0x40 DUP9 ADD MSTORE PUSH2 0x20D8 JUMP JUMPDEST SWAP3 PUSH1 0xFF DUP2 AND ISZERO ISZERO PUSH1 0x60 DUP7 ADD MSTORE PUSH1 0x8 SHR AND PUSH1 0x80 DUP5 ADD MSTORE PUSH1 0xA0 DUP4 ADD MSTORE SUB SWAP1 RETURN JUMPDEST PUSH1 0x0 DUP1 REVERT JUMPDEST CALLVALUE PUSH2 0x27F JUMPI PUSH1 0x20 CALLDATASIZE PUSH1 0x3 NOT ADD SLT PUSH2 0x27F JUMPI PUSH2 0x29D PUSH2 0x209F JUMP JUMPDEST PUSH2 0x2A5 PUSH2 0x24FB JUMP JUMPDEST PUSH1 0x1 PUSH1 0x1 PUSH1 0xA0 SHL SUB SWAP1 DUP2 AND SWAP1 DUP2 ISZERO PUSH2 0x2F9 JUMPI PUSH1 0x0 SLOAD DUP3 PUSH12 0xFFFFFFFFFFFFFFFFFFFFFFFF PUSH1 0xA0 SHL DUP3 AND OR PUSH1 0x0 SSTORE AND PUSH32 0x8BE0079C531659141344CD1FD0A4F28419497F9722A3DAAFE3B4186F6B6457E0 PUSH1 0x0 DUP1 LOG3 STOP JUMPDEST PUSH1 0x40 MLOAD PUSH4 0x1E4FBDF7 PUSH1 0xE0 SHL DUP2 MSTORE PUSH1 0x0 PUSH1 0x4 DUP3 ADD MSTORE PUSH1 0x24 SWAP1 REVERT JUMPDEST CALLVALUE PUSH2 0x27F JUMPI PUSH1 0x20 CALLDATASIZE PUSH1 0x3 NOT ADD SLT PUSH2 0x27F JUMPI PUSH1 0x4 CALLDATALOAD PUSH1 0x1 PUSH1 0x1 PUSH1 0x40 SHL SUB DUP2 GT PUSH2 0x27F JUMPI PUSH2 0x364 PUSH1 0x20 PUSH2 0x349 PUSH1 0x3 SWAP4 CALLDATASIZE SWAP1 PUSH1 0x4 ADD PUSH2 0x1FF3 JUMP JUMPDEST PUSH2 0x351 PUSH2 0x24FB JUMP JUMPDEST DUP2 PUSH1 0x40 MLOAD SWAP4 DUP3 DUP6 DUP1 SWAP5 MLOAD SWAP4 DUP5 SWAP3 ADD PUSH2 0x20B5 JUMP JUMPDEST PUSH1 0x5 SWAP1 DUP3 ADD SWAP1 DUP2 MSTORE SUB ADD SWAP1 KECCAK256 ADD DUP1 SLOAD PUSH1 0xFF PUSH1 0xA0 SHL NOT AND PUSH1 0x1 PUSH1 0xA0 SHL OR SWAP1 SSTORE STOP JUMPDEST CALLVALUE PUSH2 0x27F JUMPI PUSH1 0x20 CALLDATASIZE PUSH1 0x3 NOT ADD SLT PUSH2 0x27F JUMPI PUSH2 0x39D PUSH2 0x209F JUMP JUMPDEST PUSH1 0x60 PUSH2 0x120 PUSH1 0x40 MLOAD PUSH2 0x3AE DUP2 PUSH2 0x1F9B JUMP JUMPDEST DUP3 DUP2 MSTORE DUP3 PUSH1 0x20 DUP3 ADD MSTORE DUP3 PUSH1 0x40 DUP3 ADD MSTORE DUP3 DUP1 DUP3 ADD MSTORE PUSH1 0x0 PUSH1 0x80 DUP3 ADD MSTORE PUSH1 0x0 PUSH1 0xA0 DUP3 ADD MSTORE PUSH1 0x0 PUSH1 0xC0 DUP3 ADD MSTORE PUSH1 0x0 PUSH1 0xE0 DUP3 ADD MSTORE PUSH1 0x0 PUSH2 0x100 DUP3 ADD MSTORE ADD MSTORE PUSH1 0x1 DUP1 PUSH1 0xA0 SHL SUB AND PUSH1 0x0 MSTORE PUSH1 0x3 PUSH1 0x20 MSTORE PUSH2 0x58F PUSH1 0x40 PUSH1 0x0 KECCAK256 PUSH2 0x4BD PUSH1 0x7 PUSH1 0x40 MLOAD SWAP3 PUSH2 0x412 DUP5 PUSH2 0x1F9B JUMP JUMPDEST PUSH1 0x40 MLOAD PUSH2 0x423 DUP2 PUSH2 0x21C DUP2 DUP6 PUSH2 0x2194 JUMP JUMPDEST DUP5 MSTORE PUSH1 0x40 MLOAD PUSH2 0x439 DUP2 PUSH2 0x21C DUP2 PUSH1 0x1 DUP7 ADD PUSH2 0x2194 JUMP JUMPDEST PUSH1 0x20 DUP6 ADD MSTORE PUSH1 0x40 MLOAD PUSH2 0x452 DUP2 PUSH2 0x21C DUP2 PUSH1 0x2 DUP7 ADD PUSH2 0x2194 JUMP JUMPDEST PUSH1 0x40 DUP6 ADD MSTORE PUSH1 0x40 MLOAD PUSH2 0x46B DUP2 PUSH2 0x21C DUP2 PUSH1 0x3 DUP7 ADD PUSH2 0x2194 JUMP JUMPDEST PUSH1 0x60 DUP6 ADD MSTORE PUSH1 0x4 DUP2 ADD SLOAD PUSH1 0x1 PUSH1 0x1 PUSH1 0xA0 SHL SUB SWAP1 DUP2 AND PUSH1 0x80 DUP7 ADD MSTORE PUSH1 0x5 DUP3 ADD SLOAD PUSH1 0xA0 DUP7 ADD MSTORE PUSH1 0x6 DUP3 ADD SLOAD PUSH1 0xFF DUP1 DUP3 AND ISZERO ISZERO PUSH1 0xC0 DUP9 ADD MSTORE PUSH1 0x8 DUP3 SWAP1 SHR AND ISZERO ISZERO PUSH1 0xE0 DUP8 ADD MSTORE PUSH1 0x10 SHR AND PUSH2 0x100 DUP6 ADD MSTORE ADD PUSH2 0x2241 JUMP JUMPDEST PUSH2 0x120 DUP3 ADD MSTORE PUSH1 0x40 MLOAD SWAP2 DUP3 SWAP2 PUSH1 0x20 DUP4 MSTORE PUSH2 0x120 PUSH2 0x533 PUSH2 0x51D PUSH2 0x507 PUSH2 0x4F1 DUP6 MLOAD PUSH2 0x140 PUSH1 0x20 DUP11 ADD MSTORE PUSH2 0x160 DUP10 ADD SWAP1 PUSH2 0x20D8 JUMP JUMPDEST PUSH1 0x20 DUP7 ADD MLOAD DUP9 DUP3 SUB PUSH1 0x1F NOT ADD PUSH1 0x40 DUP11 ADD MSTORE PUSH2 0x20D8 JUMP JUMPDEST PUSH1 0x40 DUP6 ADD MLOAD DUP8 DUP3 SUB PUSH1 0x1F NOT ADD PUSH1 0x60 DUP10 ADD MSTORE PUSH2 0x20D8 JUMP JUMPDEST PUSH1 0x60 DUP5 ADD MLOAD DUP7 DUP3 SUB PUSH1 0x1F NOT ADD PUSH1 0x80 DUP9 ADD MSTORE PUSH2 0x20D8 JUMP JUMPDEST SWAP2 PUSH1 0x1 DUP1 PUSH1 0xA0 SHL SUB PUSH1 0x80 DUP3 ADD MLOAD AND PUSH1 0xA0 DUP7 ADD MSTORE PUSH1 0xA0 DUP2 ADD MLOAD PUSH1 0xC0 DUP7 ADD MSTORE PUSH1 0xC0 DUP2 ADD MLOAD ISZERO ISZERO PUSH1 0xE0 DUP7 ADD MSTORE PUSH1 0xE0 DUP2 ADD MLOAD ISZERO ISZERO PUSH2 0x100 DUP7 ADD MSTORE PUSH1 0x1 DUP1 PUSH1 0xA0 SHL SUB PUSH2 0x100 DUP3 ADD MLOAD AND DUP3 DUP7 ADD MSTORE ADD MLOAD PUSH1 0x1F NOT DUP5 DUP4 SUB ADD PUSH2 0x140 DUP6 ADD MSTORE PUSH2 0x20FD JUMP JUMPDEST SUB SWAP1 RETURN JUMPDEST CALLVALUE PUSH2 0x27F JUMPI PUSH1 0x40 CALLDATASIZE PUSH1 0x3 NOT ADD SLT PUSH2 0x27F JUMPI PUSH2 0x5AC PUSH2 0x209F JUMP JUMPDEST PUSH1 0x1 PUSH1 0x1 PUSH1 0xA0 SHL SUB AND PUSH1 0x0 SWAP1 DUP2 MSTORE PUSH1 0x7 PUSH1 0x20 MSTORE PUSH1 0x40 SWAP1 KECCAK256 DUP1 SLOAD PUSH1 0x24 CALLDATALOAD SWAP1 DUP2 LT ISZERO PUSH2 0x27F JUMPI PUSH2 0x5D9 SWAP2 PUSH2 0x2087 JUMP JUMPDEST PUSH2 0x607 JUMPI PUSH2 0x21C PUSH2 0x5F3 PUSH2 0x58F SWAP3 PUSH1 0x40 MLOAD SWAP3 DUP4 DUP1 SWAP3 PUSH2 0x2194 JUMP JUMPDEST PUSH1 0x40 MLOAD SWAP2 DUP3 SWAP2 PUSH1 0x20 DUP4 MSTORE PUSH1 0x20 DUP4 ADD SWAP1 PUSH2 0x20D8 JUMP JUMPDEST PUSH4 0x4E487B71 PUSH1 0xE0 SHL PUSH1 0x0 MSTORE PUSH1 0x0 PUSH1 0x4 MSTORE PUSH1 0x24 PUSH1 0x0 REVERT JUMPDEST CALLVALUE PUSH2 0x27F JUMPI PUSH1 0x20 CALLDATASIZE PUSH1 0x3 NOT ADD SLT PUSH2 0x27F JUMPI PUSH2 0x636 PUSH2 0x209F JUMP JUMPDEST PUSH2 0x63E PUSH2 0x24FB JUMP JUMPDEST PUSH1 0x1 PUSH1 0x1 PUSH1 0xA0 SHL SUB AND PUSH1 0x0 SWAP1 DUP2 MSTORE PUSH1 0x6 PUSH1 0x20 MSTORE PUSH1 0x40 SWAP1 KECCAK256 DUP1 SLOAD PUSH1 0xFF NOT AND SWAP1 SSTORE STOP JUMPDEST CALLVALUE PUSH2 0x27F JUMPI PUSH1 0x40 CALLDATASIZE PUSH1 0x3 NOT ADD SLT PUSH2 0x27F JUMPI PUSH1 0x4 CALLDATALOAD PUSH1 0x1 PUSH1 0x1 PUSH1 0x40 SHL SUB DUP2 GT PUSH2 0x27F JUMPI PUSH2 0x68F SWAP1 CALLDATASIZE SWAP1 PUSH1 0x4 ADD PUSH2 0x1FF3 JUMP JUMPDEST PUSH1 0x24 CALLDATALOAD PUSH1 0x1 PUSH1 0x1 PUSH1 0xA0 SHL SUB DUP2 AND SWAP2 SWAP1 DUP3 SWAP1 SUB PUSH2 0x27F JUMPI PUSH2 0x6C0 PUSH1 0x20 PUSH1 0x5 SWAP3 DUP2 PUSH1 0x40 MLOAD SWAP4 DUP3 DUP6 DUP1 SWAP5 MLOAD SWAP4 DUP5 SWAP3 ADD PUSH2 0x20B5 JUMP JUMPDEST DUP2 ADD DUP5 DUP2 MSTORE SUB ADD SWAP1 KECCAK256 ADD SWAP1 PUSH1 0x0 MSTORE PUSH1 0x20 MSTORE PUSH1 0x20 PUSH1 0xFF PUSH1 0x40 PUSH1 0x0 KECCAK256 SLOAD AND PUSH1 0x40 MLOAD SWAP1 ISZERO ISZERO DUP2 MSTORE RETURN JUMPDEST CALLVALUE PUSH2 0x27F JUMPI PUSH1 0x0 CALLDATASIZE PUSH1 0x3 NOT ADD SLT PUSH2 0x27F JUMPI PUSH1 0x20 PUSH1 0xC SLOAD PUSH1 0x40 MLOAD SWAP1 DUP2 MSTORE RETURN JUMPDEST PUSH1 0x80 CALLDATASIZE PUSH1 0x3 NOT ADD SLT PUSH2 0x27F JUMPI PUSH2 0x718 PUSH2 0x209F JUMP JUMPDEST PUSH1 0x24 SWAP1 PUSH1 0x1 PUSH1 0x1 PUSH1 0x40 SHL SUB DUP3 CALLDATALOAD DUP2 DUP2 GT PUSH2 0x27F JUMPI PUSH2 0x73A SWAP1 CALLDATASIZE SWAP1 PUSH1 0x4 ADD PUSH2 0x1FF3 JUMP JUMPDEST PUSH1 0x44 CALLDATALOAD DUP3 DUP2 GT PUSH2 0x27F JUMPI PUSH2 0x752 SWAP1 CALLDATASIZE SWAP1 PUSH1 0x4 ADD PUSH2 0x1FF3 JUMP JUMPDEST SWAP2 PUSH1 0x64 CALLDATALOAD SWAP1 DUP2 GT PUSH2 0x27F JUMPI PUSH2 0x76B SWAP1 CALLDATASIZE SWAP1 PUSH1 0x4 ADD PUSH2 0x1FF3 JUMP JUMPDEST PUSH2 0x773 PUSH2 0x2527 JUMP JUMPDEST PUSH1 0x1 PUSH1 0x1 PUSH1 0xA0 SHL SUB SWAP4 DUP5 AND SWAP4 DUP5 ISZERO PUSH2 0x9C3 JUMPI DUP3 MLOAD ISZERO PUSH2 0x98E JUMPI DUP1 PUSH1 0x0 SLOAD AND CALLER EQ ISZERO DUP1 PUSH2 0x975 JUMPI JUMPDEST PUSH2 0x92E JUMPI JUMPDEST DUP5 PUSH1 0x0 MSTORE PUSH1 0x4 PUSH1 0x20 MSTORE PUSH1 0x40 PUSH1 0x0 KECCAK256 SWAP1 PUSH2 0x7DD PUSH2 0x7BB DUP4 SLOAD PUSH2 0x215A JUMP JUMPDEST ISZERO SWAP4 PUSH2 0x7C7 DUP7 DUP6 PUSH2 0x2306 JUMP JUMPDEST PUSH2 0x7D4 DUP8 PUSH1 0x1 DUP7 ADD PUSH2 0x2306 JUMP JUMPDEST PUSH1 0x2 DUP5 ADD PUSH2 0x2306 JUMP JUMPDEST CALLER PUSH1 0x0 MSTORE PUSH1 0x6 PUSH1 0x20 MSTORE PUSH1 0xFF PUSH1 0x40 PUSH1 0x0 KECCAK256 SLOAD AND SWAP1 DUP2 ISZERO PUSH2 0x920 JUMPI JUMPDEST POP PUSH1 0x3 DUP3 ADD DUP1 SLOAD PUSH1 0x1 PUSH1 0x1 PUSH1 0xA8 SHL SUB NOT AND SWAP2 ISZERO ISZERO PUSH1 0xFF AND SWAP2 SWAP1 SWAP2 OR CALLER PUSH1 0x8 SHL PUSH2 0x100 PUSH1 0x1 PUSH1 0xA8 SHL SUB AND OR SWAP1 SSTORE TIMESTAMP PUSH1 0x4 SWAP1 SWAP2 ADD SSTORE ISZERO PUSH2 0x8ED JUMPI PUSH1 0xA SLOAD PUSH1 0x1 PUSH1 0x40 SHL DUP2 LT ISZERO PUSH2 0x8D8 JUMPI PUSH1 0x1 DUP2 ADD DUP1 PUSH1 0xA SSTORE DUP2 LT ISZERO PUSH2 0x8C3 JUMPI PUSH32 0x5DB15FCDD11DA222E171871A09433ABCC57ACF09855FE9234B3BD1B1AE536B33 SWAP4 SWAP5 POP PUSH1 0xA PUSH1 0x0 MSTORE PUSH32 0xC65A7BB8D6351C1CF70C95A316CC6A92839C986682D98BC35F958F4883F9D2A8 ADD DUP5 PUSH12 0xFFFFFFFFFFFFFFFFFFFFFFFF PUSH1 0xA0 SHL DUP3 SLOAD AND OR SWAP1 SSTORE PUSH2 0x8BE PUSH1 0x40 MLOAD SWAP3 DUP4 SWAP3 DUP4 PUSH2 0x24D3 JUMP JUMPDEST SUB SWAP1 LOG2 STOP JUMPDEST DUP5 PUSH4 0x4E487B71 PUSH1 0xE0 SHL PUSH1 0x0 MSTORE PUSH1 0x32 PUSH1 0x4 MSTORE PUSH1 0x0 REVERT JUMPDEST DUP5 PUSH4 0x4E487B71 PUSH1 0xE0 SHL PUSH1 0x0 MSTORE PUSH1 0x41 PUSH1 0x4 MSTORE PUSH1 0x0 REVERT JUMPDEST PUSH32 0xC74DC180A9BDC2906BCF486FB58E48FAD171EB8F3F77B3836318DD20DABA5A0B SWAP3 SWAP4 POP PUSH2 0x8BE PUSH1 0x40 MLOAD SWAP3 DUP4 SWAP3 DUP4 PUSH2 0x24D3 JUMP JUMPDEST SWAP1 POP PUSH1 0x0 SLOAD AND CALLER EQ DUP8 PUSH2 0x7F7 JUMP JUMPDEST PUSH1 0xC SLOAD CALLVALUE LT ISZERO PUSH2 0x79F JUMPI PUSH1 0x40 MLOAD PUSH3 0x461BCD PUSH1 0xE5 SHL DUP2 MSTORE PUSH1 0x20 PUSH1 0x4 DUP3 ADD MSTORE PUSH1 0x16 DUP2 DUP9 ADD MSTORE PUSH22 0x496E73756666696369656E74206C6162656C20666565 PUSH1 0x50 SHL PUSH1 0x44 DUP3 ADD MSTORE PUSH1 0x64 SWAP1 REVERT JUMPDEST POP CALLER PUSH1 0x0 MSTORE PUSH1 0x6 PUSH1 0x20 MSTORE PUSH1 0xFF PUSH1 0x40 PUSH1 0x0 KECCAK256 SLOAD AND ISZERO PUSH2 0x79A JUMP JUMPDEST PUSH1 0x40 MLOAD PUSH3 0x461BCD PUSH1 0xE5 SHL DUP2 MSTORE PUSH1 0x20 PUSH1 0x4 DUP3 ADD MSTORE PUSH1 0xE DUP2 DUP9 ADD MSTORE PUSH14 0x131858995B081C995C5D5A5C9959 PUSH1 0x92 SHL PUSH1 0x44 DUP3 ADD MSTORE PUSH1 0x64 SWAP1 REVERT JUMPDEST PUSH1 0x40 MLOAD PUSH3 0x461BCD PUSH1 0xE5 SHL DUP2 MSTORE PUSH1 0x20 PUSH1 0x4 DUP3 ADD MSTORE PUSH1 0xF DUP2 DUP9 ADD MSTORE PUSH15 0x496E76616C69642061646472657373 PUSH1 0x88 SHL PUSH1 0x44 DUP3 ADD MSTORE PUSH1 0x64 SWAP1 REVERT JUMPDEST CALLVALUE PUSH2 0x27F JUMPI PUSH1 0x0 CALLDATASIZE PUSH1 0x3 NOT ADD SLT PUSH2 0x27F JUMPI PUSH1 0x20 PUSH1 0xA SLOAD PUSH1 0x40 MLOAD SWAP1 DUP2 MSTORE RETURN JUMPDEST CALLVALUE PUSH2 0x27F JUMPI PUSH1 0x20 CALLDATASIZE PUSH1 0x3 NOT ADD SLT PUSH2 0x27F JUMPI PUSH2 0xA30 PUSH2 0x24FB JUMP JUMPDEST PUSH1 0x4 CALLDATALOAD PUSH1 0xB SSTORE STOP JUMPDEST PUSH2 0x100 CALLDATASIZE PUSH1 0x3 NOT ADD SLT PUSH2 0x27F JUMPI PUSH2 0xA4D PUSH2 0x209F JUMP JUMPDEST PUSH1 0x24 CALLDATALOAD PUSH1 0x1 PUSH1 0x1 PUSH1 0x40 SHL SUB DUP2 GT PUSH2 0x27F JUMPI PUSH2 0xA6C SWAP1 CALLDATASIZE SWAP1 PUSH1 0x4 ADD PUSH2 0x1FF3 JUMP JUMPDEST SWAP1 PUSH1 0x44 CALLDATALOAD PUSH1 0x1 PUSH1 0x1 PUSH1 0x40 SHL SUB DUP2 GT PUSH2 0x27F JUMPI PUSH2 0xA8C SWAP1 CALLDATASIZE SWAP1 PUSH1 0x4 ADD PUSH2 0x1FF3 JUMP JUMPDEST PUSH1 0x64 CALLDATALOAD PUSH1 0x1 PUSH1 0x1 PUSH1 0x40 SHL SUB DUP2 GT PUSH2 0x27F JUMPI PUSH2 0xAAB SWAP1 CALLDATASIZE SWAP1 PUSH1 0x4 ADD PUSH2 0x1FF3 JUMP JUMPDEST PUSH1 0x84 CALLDATALOAD PUSH1 0x1 PUSH1 0x1 PUSH1 0x40 SHL SUB DUP2 GT PUSH2 0x27F JUMPI PUSH2 0xACA SWAP1 CALLDATASIZE SWAP1 PUSH1 0x4 ADD PUSH2 0x1FF3 JUMP JUMPDEST SWAP1 PUSH1 0xA4 CALLDATALOAD SWAP2 DUP3 ISZERO ISZERO DUP4 SUB PUSH2 0x27F JUMPI PUSH1 0xC4 CALLDATALOAD PUSH1 0x1 PUSH1 0x1 PUSH1 0xA0 SHL SUB DUP2 AND SWAP1 SUB PUSH2 0x27F JUMPI PUSH1 0x1 PUSH1 0x1 PUSH1 0x40 SHL SUB PUSH1 0xE4 CALLDATALOAD GT PUSH2 0x27F JUMPI CALLDATASIZE PUSH1 0x23 PUSH1 0xE4 CALLDATALOAD ADD SLT ISZERO PUSH2 0x27F JUMPI PUSH1 0xE4 CALLDATALOAD PUSH1 0x4 ADD CALLDATALOAD SWAP3 PUSH2 0xB19 DUP5 PUSH2 0x222A JUMP JUMPDEST SWAP2 PUSH2 0xB27 PUSH1 0x40 MLOAD SWAP4 DUP5 PUSH2 0x1FB7 JUMP JUMPDEST DUP5 DUP4 MSTORE PUSH1 0x20 DUP4 ADD DUP1 SWAP6 CALLDATASIZE PUSH1 0x24 DUP3 PUSH1 0x5 SHL PUSH1 0xE4 CALLDATALOAD ADD ADD GT PUSH2 0x27F JUMPI PUSH1 0x24 PUSH1 0xE4 CALLDATALOAD ADD SWAP2 JUMPDEST PUSH1 0x24 DUP3 PUSH1 0x5 SHL PUSH1 0xE4 CALLDATALOAD ADD ADD DUP4 LT PUSH2 0xF40 JUMPI POP POP POP CALLER PUSH1 0x0 MSTORE PUSH1 0x6 PUSH1 0x20 MSTORE PUSH1 0xFF PUSH1 0x40 PUSH1 0x0 KECCAK256 SLOAD AND DUP1 ISZERO PUSH2 0xF2C JUMPI JUMPDEST ISZERO PUSH2 0xEE7 JUMPI PUSH2 0xB83 PUSH2 0x2527 JUMP JUMPDEST PUSH1 0x1 PUSH1 0x1 PUSH1 0xA0 SHL SUB DUP8 AND ISZERO PUSH2 0xEA2 JUMPI DUP8 MLOAD ISZERO PUSH2 0xE6D JUMPI DUP4 MLOAD ISZERO PUSH2 0xE31 JUMPI PUSH1 0x0 SLOAD PUSH1 0x1 PUSH1 0x1 PUSH1 0xA0 SHL SUB AND CALLER SUB PUSH2 0xDE2 JUMPI JUMPDEST PUSH2 0xBFA SWAP1 PUSH1 0x1 DUP1 PUSH1 0xA0 SHL SUB DUP9 AND PUSH1 0x0 MSTORE PUSH1 0x3 PUSH1 0x20 MSTORE PUSH2 0xBF1 PUSH1 0x40 PUSH1 0x0 KECCAK256 SWAP6 PUSH2 0xBDB DUP12 DUP9 PUSH2 0x2306 JUMP JUMPDEST PUSH2 0xBE8 DUP10 PUSH1 0x1 DUP10 ADD PUSH2 0x2306 JUMP JUMPDEST PUSH1 0x2 DUP8 ADD PUSH2 0x2306 JUMP JUMPDEST PUSH1 0x3 DUP6 ADD PUSH2 0x2306 JUMP JUMPDEST PUSH1 0x4 DUP4 ADD DUP1 SLOAD PUSH1 0x1 PUSH1 0x1 PUSH1 0xA0 SHL SUB NOT AND CALLER OR SWAP1 SSTORE NUMBER PUSH1 0x5 DUP5 ADD SSTORE PUSH1 0x6 DUP4 ADD DUP1 SLOAD SWAP2 ISZERO ISZERO PUSH1 0x8 SHL PUSH2 0xFF00 AND PUSH1 0x1 PUSH1 0x1 PUSH1 0xB0 SHL SUB NOT SWAP1 SWAP3 AND SWAP2 SWAP1 SWAP2 OR PUSH1 0xC4 CALLDATALOAD PUSH1 0x10 SHL PUSH3 0x10000 PUSH1 0x1 PUSH1 0xB0 SHL SUB AND OR PUSH1 0x1 OR SWAP1 SSTORE MLOAD SWAP2 PUSH1 0x1 PUSH1 0x40 SHL DUP4 GT PUSH2 0xD36 JUMPI PUSH1 0x7 DUP3 ADD SLOAD DUP4 PUSH1 0x7 DUP5 ADD SSTORE DUP1 DUP5 LT PUSH2 0xD69 JUMPI JUMPDEST POP PUSH1 0x7 SWAP1 SWAP2 ADD PUSH1 0x0 MSTORE PUSH1 0x20 PUSH1 0x0 KECCAK256 PUSH1 0x0 SWAP2 JUMPDEST DUP4 DUP4 LT PUSH2 0xD4C JUMPI POP POP POP POP PUSH2 0xC91 DUP3 PUSH2 0x2545 JUMP JUMPDEST ISZERO PUSH2 0xCD1 JUMPI JUMPDEST PUSH32 0x9886278BB59C8848A4EEFD096EEA7469F3FDC0106EE5873F9C82DFD0035C6524 SWAP2 PUSH2 0x8BE PUSH1 0x40 MLOAD SWAP3 DUP4 SWAP3 PUSH1 0x1 DUP1 PUSH1 0xA0 SHL SUB AND SWAP6 DUP4 PUSH2 0x24D3 JUMP JUMPDEST PUSH1 0x9 SLOAD SWAP2 PUSH1 0x1 PUSH1 0x40 SHL DUP4 LT ISZERO PUSH2 0xD36 JUMPI PUSH2 0xD12 DUP4 PUSH1 0x1 PUSH32 0x9886278BB59C8848A4EEFD096EEA7469F3FDC0106EE5873F9C82DFD0035C6524 SWAP6 ADD PUSH1 0x9 SSTORE PUSH2 0x203A JUMP JUMPDEST DUP2 SLOAD PUSH1 0x1 PUSH1 0x1 PUSH1 0xA0 SHL SUB DUP5 DUP2 AND PUSH1 0x3 SWAP4 SWAP1 SWAP4 SHL SWAP3 DUP4 SHL SWAP3 SHL NOT AND OR SWAP1 SSTORE SWAP2 POP PUSH2 0xC97 JUMP JUMPDEST PUSH4 0x4E487B71 PUSH1 0xE0 SHL PUSH1 0x0 MSTORE PUSH1 0x41 PUSH1 0x4 MSTORE PUSH1 0x24 PUSH1 0x0 REVERT JUMPDEST PUSH1 0x1 PUSH1 0x20 DUP3 PUSH2 0xD5D DUP4 SWAP5 MLOAD DUP7 PUSH2 0x2306 JUMP JUMPDEST ADD SWAP3 ADD SWAP3 ADD SWAP2 SWAP1 PUSH2 0xC7D JUMP JUMPDEST PUSH1 0x7 DUP4 ADD PUSH1 0x0 MSTORE PUSH1 0x20 PUSH1 0x0 KECCAK256 SWAP1 DUP5 DUP3 ADD JUMPDEST DUP2 DUP4 ADD DUP2 LT PUSH2 0xD8A JUMPI POP POP PUSH2 0xC6B JUMP JUMPDEST DUP1 PUSH2 0xD97 PUSH1 0x1 SWAP3 SLOAD PUSH2 0x215A JUMP JUMPDEST DUP1 PUSH2 0xDA4 JUMPI JUMPDEST POP ADD PUSH2 0xD7A JUMP JUMPDEST PUSH1 0x1F SWAP1 DUP2 DUP2 GT DUP5 EQ PUSH2 0xDBD JUMPI POP POP PUSH1 0x0 DUP2 SSTORE JUMPDEST DUP11 PUSH2 0xD9D JUMP JUMPDEST PUSH2 0xDD9 PUSH1 0x0 SWAP3 DUP5 DUP5 MSTORE PUSH1 0x20 DUP5 KECCAK256 SWAP3 ADD PUSH1 0x5 SHR DUP3 ADD DUP6 DUP4 ADD PUSH2 0x22A8 JUMP JUMPDEST DUP2 DUP4 SSTORE SSTORE PUSH2 0xDB7 JUMP JUMPDEST PUSH1 0xB SLOAD CALLVALUE LT ISZERO PUSH2 0xBB3 JUMPI PUSH1 0x40 MLOAD PUSH3 0x461BCD PUSH1 0xE5 SHL DUP2 MSTORE PUSH1 0x20 PUSH1 0x4 DUP3 ADD MSTORE PUSH1 0x1D PUSH1 0x24 DUP3 ADD MSTORE PUSH32 0x496E73756666696369656E7420766572696669636174696F6E20666565000000 PUSH1 0x44 DUP3 ADD MSTORE PUSH1 0x64 SWAP1 REVERT JUMPDEST PUSH1 0x40 MLOAD PUSH3 0x461BCD PUSH1 0xE5 SHL DUP2 MSTORE PUSH1 0x20 PUSH1 0x4 DUP3 ADD MSTORE PUSH1 0x14 PUSH1 0x24 DUP3 ADD MSTORE PUSH20 0x14DBDD5C98D94818DBD919481C995C5D5A5C9959 PUSH1 0x62 SHL PUSH1 0x44 DUP3 ADD MSTORE PUSH1 0x64 SWAP1 REVERT JUMPDEST PUSH1 0x40 MLOAD PUSH3 0x461BCD PUSH1 0xE5 SHL DUP2 MSTORE PUSH1 0x20 PUSH1 0x4 DUP3 ADD MSTORE PUSH1 0xD PUSH1 0x24 DUP3 ADD MSTORE PUSH13 0x13985B59481C995C5D5A5C9959 PUSH1 0x9A SHL PUSH1 0x44 DUP3 ADD MSTORE PUSH1 0x64 SWAP1 REVERT JUMPDEST PUSH1 0x40 MLOAD PUSH3 0x461BCD PUSH1 0xE5 SHL DUP2 MSTORE PUSH1 0x20 PUSH1 0x4 DUP3 ADD MSTORE PUSH1 0x18 PUSH1 0x24 DUP3 ADD MSTORE PUSH32 0x496E76616C696420636F6E747261637420616464726573730000000000000000 PUSH1 0x44 DUP3 ADD MSTORE PUSH1 0x64 SWAP1 REVERT JUMPDEST PUSH1 0x40 MLOAD PUSH3 0x461BCD PUSH1 0xE5 SHL DUP2 MSTORE PUSH1 0x20 PUSH1 0x4 DUP3 ADD MSTORE PUSH1 0x17 PUSH1 0x24 DUP3 ADD MSTORE PUSH32 0x4E6F7420617574686F72697A6564207665726966696572000000000000000000 PUSH1 0x44 DUP3 ADD MSTORE PUSH1 0x64 SWAP1 REVERT JUMPDEST POP PUSH1 0x0 SLOAD PUSH1 0x1 PUSH1 0x1 PUSH1 0xA0 SHL SUB AND CALLER EQ PUSH2 0xB76 JUMP JUMPDEST DUP3 CALLDATALOAD SWAP1 PUSH1 0x1 PUSH1 0x1 PUSH1 0x40 SHL SUB DUP3 GT PUSH2 0x27F JUMPI PUSH1 0x20 DUP1 SWAP2 PUSH2 0xF68 PUSH1 0x24 SWAP5 DUP6 CALLDATASIZE SWAP2 PUSH1 0xE4 CALLDATALOAD ADD ADD PUSH2 0x1FF3 JUMP JUMPDEST DUP2 MSTORE ADD SWAP4 ADD SWAP3 SWAP1 POP PUSH2 0xB49 JUMP JUMPDEST CALLVALUE PUSH2 0x27F JUMPI PUSH1 0x0 CALLDATASIZE PUSH1 0x3 NOT ADD SLT PUSH2 0x27F JUMPI PUSH1 0x20 PUSH1 0xB SLOAD PUSH1 0x40 MLOAD SWAP1 DUP2 MSTORE RETURN JUMPDEST CALLVALUE PUSH2 0x27F JUMPI PUSH1 0x20 DUP1 PUSH1 0x3 NOT CALLDATASIZE ADD SLT PUSH2 0x27F JUMPI PUSH1 0x4 CALLDATALOAD PUSH1 0x1 PUSH1 0x1 PUSH1 0x40 SHL SUB DUP2 GT PUSH2 0x27F JUMPI PUSH2 0xFC4 SWAP1 CALLDATASIZE SWAP1 PUSH1 0x4 ADD PUSH2 0x1FF3 JUMP JUMPDEST SWAP1 PUSH1 0x40 MLOAD DUP3 MLOAD SWAP2 DUP1 DUP5 ADD SWAP3 PUSH2 0xFDA DUP2 DUP5 DUP7 PUSH2 0x20B5 JUMP JUMPDEST DUP3 ADD DUP3 DUP3 PUSH1 0x5 SWAP5 DUP4 DUP7 DUP1 SWAP6 MSTORE SUB ADD SWAP1 KECCAK256 ADD CALLER PUSH1 0x0 MSTORE DUP2 MSTORE PUSH1 0xFF PUSH1 0x40 PUSH1 0x0 KECCAK256 SLOAD AND ISZERO PUSH2 0x11C3 JUMPI DUP2 PUSH1 0x40 MLOAD DUP3 DUP2 DUP8 MLOAD PUSH2 0x1012 DUP2 DUP4 DUP11 PUSH2 0x20B5 JUMP JUMPDEST DUP2 ADD DUP5 DUP2 MSTORE SUB ADD SWAP1 KECCAK256 ADD CALLER PUSH1 0x0 MSTORE DUP2 MSTORE PUSH1 0x40 PUSH1 0x0 KECCAK256 PUSH1 0xFF NOT DUP2 SLOAD AND SWAP1 SSTORE PUSH1 0x4 PUSH1 0x40 MLOAD DUP3 DUP2 DUP8 MLOAD PUSH2 0x1043 DUP2 DUP4 DUP11 PUSH2 0x20B5 JUMP JUMPDEST DUP2 ADD DUP7 DUP2 MSTORE SUB ADD SWAP1 KECCAK256 ADD SWAP1 DUP2 SLOAD SWAP2 DUP3 ISZERO PUSH2 0x11A1 JUMPI PUSH1 0x0 NOT DUP1 SWAP4 ADD SWAP1 SSTORE CALLER PUSH1 0x0 MSTORE PUSH1 0x7 DUP2 MSTORE PUSH1 0x40 PUSH1 0x0 KECCAK256 SWAP2 PUSH1 0x0 JUMPDEST DUP4 SLOAD DUP1 DUP3 LT ISZERO PUSH2 0x11B7 JUMPI PUSH2 0x21C PUSH2 0x1097 PUSH2 0x108A DUP5 DUP9 PUSH2 0x2087 JUMP JUMPDEST POP PUSH1 0x40 MLOAD SWAP3 DUP4 DUP1 SWAP3 PUSH2 0x2194 JUMP JUMPDEST DUP5 DUP2 MLOAD SWAP2 ADD KECCAK256 DUP9 MLOAD DUP9 KECCAK256 EQ PUSH2 0x10AF JUMPI POP PUSH1 0x1 ADD PUSH2 0x1070 JUMP JUMPDEST SWAP1 SWAP2 DUP1 SWAP4 SWAP5 SWAP6 SWAP7 POP DUP2 ADD SWAP1 DUP2 GT PUSH2 0x11A1 JUMPI PUSH2 0x10CD PUSH2 0x10D5 SWAP2 DUP7 PUSH2 0x2087 JUMP JUMPDEST POP SWAP2 DUP6 PUSH2 0x2087 JUMP JUMPDEST SWAP2 SWAP1 SWAP2 PUSH2 0x607 JUMPI PUSH2 0x10E5 SWAP2 PUSH2 0x23F5 JUMP JUMPDEST DUP3 SLOAD DUP1 ISZERO PUSH2 0x118B JUMPI ADD SWAP3 PUSH2 0x10F9 DUP5 DUP5 PUSH2 0x2087 JUMP JUMPDEST SWAP2 SWAP1 SWAP2 PUSH2 0x607 JUMPI PUSH2 0x110A DUP3 SLOAD PUSH2 0x215A JUMP JUMPDEST SWAP1 DUP2 PUSH2 0x1148 JUMPI JUMPDEST POP POP POP POP SSTORE JUMPDEST PUSH2 0x1121 CALLER SWAP2 PUSH2 0x23D5 JUMP JUMPDEST PUSH32 0xADD754113C745E60B5ACE67813CC58D6F782A1C79BCF6BB24193C0FFCAD5CE6B PUSH1 0x0 DUP1 LOG3 STOP JUMPDEST PUSH1 0x0 SWAP4 PUSH1 0x1F SWAP1 DUP2 DUP5 GT PUSH1 0x1 EQ PUSH2 0x1167 JUMPI POP POP POP POP SSTORE JUMPDEST DUP4 DUP1 DUP1 DUP1 PUSH2 0x1111 JUMP JUMPDEST SWAP2 PUSH2 0x1184 SWAP2 DUP6 SWAP4 DUP8 SWAP6 SWAP7 DUP7 MSTORE DUP6 KECCAK256 SWAP6 ADD SWAP1 SHR DUP5 ADD PUSH1 0x1 DUP6 ADD PUSH2 0x22A8 JUMP JUMPDEST SSTORE SSTORE PUSH2 0x115E JUMP JUMPDEST PUSH4 0x4E487B71 PUSH1 0xE0 SHL PUSH1 0x0 MSTORE PUSH1 0x31 PUSH1 0x4 MSTORE PUSH1 0x24 PUSH1 0x0 REVERT JUMPDEST PUSH4 0x4E487B71 PUSH1 0xE0 SHL PUSH1 0x0 MSTORE PUSH1 0x11 PUSH1 0x4 MSTORE PUSH1 0x24 PUSH1 0x0 REVERT JUMPDEST POP POP POP POP POP POP POP PUSH2 0x1117 JUMP JUMPDEST PUSH1 0x64 SWAP1 PUSH1 0x40 MLOAD SWAP1 PUSH3 0x461BCD PUSH1 0xE5 SHL DUP3 MSTORE PUSH1 0x4 DUP3 ADD MSTORE PUSH1 0x14 PUSH1 0x24 DUP3 ADD MSTORE PUSH20 0x141B1D59DA5B881B9BDD081A5B9CDD185B1B1959 PUSH1 0x62 SHL PUSH1 0x44 DUP3 ADD MSTORE REVERT JUMPDEST CALLVALUE PUSH2 0x27F JUMPI PUSH1 0x20 CALLDATASIZE PUSH1 0x3 NOT ADD SLT PUSH2 0x27F JUMPI PUSH2 0x1217 PUSH2 0x24FB JUMP JUMPDEST PUSH1 0x4 CALLDATALOAD PUSH1 0xC SSTORE STOP JUMPDEST CALLVALUE PUSH2 0x27F JUMPI PUSH1 0x80 CALLDATASIZE PUSH1 0x3 NOT ADD SLT PUSH2 0x27F JUMPI PUSH1 0x1 PUSH1 0x1 PUSH1 0x40 SHL SUB PUSH1 0x4 CALLDATALOAD DUP2 DUP2 GT PUSH2 0x27F JUMPI PUSH2 0x1250 SWAP1 CALLDATASIZE SWAP1 PUSH1 0x4 ADD PUSH2 0x1FF3 JUMP JUMPDEST PUSH1 0x24 DUP1 CALLDATALOAD DUP4 DUP2 GT PUSH2 0x27F JUMPI PUSH2 0x1269 SWAP1 CALLDATASIZE SWAP1 PUSH1 0x4 ADD PUSH2 0x1FF3 JUMP JUMPDEST SWAP3 PUSH1 0x44 CALLDATALOAD DUP2 DUP2 GT PUSH2 0x27F JUMPI PUSH2 0x1282 SWAP1 CALLDATASIZE SWAP1 PUSH1 0x4 ADD PUSH2 0x1FF3 JUMP JUMPDEST SWAP1 PUSH1 0x64 CALLDATALOAD SWAP1 DUP2 GT PUSH2 0x27F JUMPI PUSH2 0x129B SWAP1 CALLDATASIZE SWAP1 PUSH1 0x4 ADD PUSH2 0x1FF3 JUMP JUMPDEST PUSH2 0x12A3 PUSH2 0x2527 JUMP JUMPDEST DUP4 MLOAD ISZERO PUSH2 0x14D3 JUMPI DUP5 MLOAD ISZERO PUSH2 0x1498 JUMPI DUP1 MLOAD ISZERO PUSH2 0x145F JUMPI PUSH1 0x40 MLOAD DUP5 MLOAD SWAP1 PUSH1 0x3 PUSH1 0x20 DUP8 ADD SWAP3 PUSH2 0x12D0 DUP2 DUP5 DUP7 PUSH2 0x20B5 JUMP JUMPDEST PUSH1 0x5 SWAP1 DUP4 ADD SWAP1 DUP2 MSTORE DUP3 SWAP1 SUB PUSH1 0x20 ADD SWAP1 SWAP2 KECCAK256 ADD SLOAD PUSH1 0x1 PUSH1 0x1 PUSH1 0xA0 SHL SUB AND PUSH2 0x1423 JUMPI SWAP2 PUSH2 0x133A PUSH1 0x4 SWAP3 PUSH2 0x1331 PUSH2 0x1313 PUSH1 0x20 PUSH1 0x0 SWAP8 PUSH1 0x40 MLOAD DUP1 SWAP4 DUP2 SWAP3 DUP14 MLOAD SWAP3 DUP4 SWAP2 PUSH2 0x20B5 JUMP JUMPDEST DUP2 ADD PUSH1 0x5 DUP2 MSTORE SUB ADD SWAP1 KECCAK256 SWAP4 PUSH2 0x1328 DUP11 DUP7 PUSH2 0x2306 JUMP JUMPDEST PUSH1 0x1 DUP6 ADD PUSH2 0x2306 JUMP JUMPDEST PUSH1 0x2 DUP4 ADD PUSH2 0x2306 JUMP JUMPDEST PUSH1 0x3 DUP2 ADD DUP1 SLOAD PUSH1 0x1 PUSH1 0x1 PUSH1 0xA8 SHL SUB NOT AND CALLER PUSH1 0xFF PUSH1 0xA0 SHL NOT AND OR PUSH1 0x1 PUSH1 0xA0 SHL OR SWAP1 SSTORE ADD SSTORE PUSH1 0x8 SLOAD SWAP1 PUSH1 0x1 PUSH1 0x40 SHL DUP3 LT ISZERO PUSH2 0x140F JUMPI PUSH1 0x1 DUP3 ADD DUP1 PUSH1 0x8 SSTORE DUP3 LT ISZERO PUSH2 0x13FB JUMPI POP PUSH2 0x13DB DUP3 PUSH2 0x13D6 PUSH32 0xA4D72E45E821EEB19AFEBA623A417EA96006687AB2E19719DFAAAC1E0B287902 SWAP5 PUSH2 0x13F0 SWAP5 PUSH1 0x8 PUSH1 0x0 MSTORE PUSH32 0xF3F7A9FE364FAAB93B216DA50A3214154F22A0A2B415B23A84C8169E8B636EE3 ADD PUSH2 0x2306 JUMP JUMPDEST PUSH2 0x23D5 JUMP JUMPDEST SWAP3 PUSH1 0x40 MLOAD SWAP2 DUP3 SWAP2 PUSH1 0x40 DUP4 MSTORE PUSH1 0x40 DUP4 ADD SWAP1 PUSH2 0x20D8 JUMP JUMPDEST CALLER PUSH1 0x20 DUP4 ADD MSTORE SUB SWAP1 LOG2 STOP JUMPDEST PUSH4 0x4E487B71 PUSH1 0xE0 SHL PUSH1 0x0 SWAP1 DUP2 MSTORE PUSH1 0x32 PUSH1 0x4 MSTORE REVERT JUMPDEST PUSH4 0x4E487B71 PUSH1 0xE0 SHL PUSH1 0x0 SWAP1 DUP2 MSTORE PUSH1 0x41 PUSH1 0x4 MSTORE REVERT JUMPDEST PUSH1 0x40 MLOAD PUSH3 0x461BCD PUSH1 0xE5 SHL DUP2 MSTORE PUSH1 0x20 PUSH1 0x4 DUP3 ADD MSTORE PUSH1 0x15 DUP2 DUP7 ADD MSTORE PUSH21 0x506C7567696E20616C726561647920657869737473 PUSH1 0x58 SHL PUSH1 0x44 DUP3 ADD MSTORE PUSH1 0x64 SWAP1 REVERT JUMPDEST PUSH1 0x40 MLOAD PUSH3 0x461BCD PUSH1 0xE5 SHL DUP2 MSTORE PUSH1 0x20 PUSH1 0x4 DUP3 ADD MSTORE PUSH1 0x12 DUP2 DUP6 ADD MSTORE PUSH18 0x12541194C81A185CDA081C995C5D5A5C9959 PUSH1 0x72 SHL PUSH1 0x44 DUP3 ADD MSTORE PUSH1 0x64 SWAP1 REVERT JUMPDEST PUSH1 0x40 MLOAD PUSH3 0x461BCD PUSH1 0xE5 SHL DUP2 MSTORE PUSH1 0x20 PUSH1 0x4 DUP3 ADD MSTORE PUSH1 0x14 DUP2 DUP6 ADD MSTORE PUSH20 0x141B1D59DA5B881B985B59481C995C5D5A5C9959 PUSH1 0x62 SHL PUSH1 0x44 DUP3 ADD MSTORE PUSH1 0x64 SWAP1 REVERT JUMPDEST PUSH1 0x40 MLOAD PUSH3 0x461BCD PUSH1 0xE5 SHL DUP2 MSTORE PUSH1 0x20 PUSH1 0x4 DUP3 ADD MSTORE PUSH1 0x12 DUP2 DUP6 ADD MSTORE PUSH18 0x141B1D59DA5B881251081C995C5D5A5C9959 PUSH1 0x72 SHL PUSH1 0x44 DUP3 ADD MSTORE PUSH1 0x64 SWAP1 REVERT JUMPDEST CALLVALUE PUSH2 0x27F JUMPI PUSH1 0x20 CALLDATASIZE PUSH1 0x3 NOT ADD SLT PUSH2 0x27F JUMPI PUSH1 0x4 CALLDATALOAD PUSH1 0x9 SLOAD DUP2 LT ISZERO PUSH2 0x27F JUMPI PUSH2 0x1535 PUSH1 0x20 SWAP2 PUSH2 0x203A JUMP JUMPDEST SWAP1 SLOAD PUSH1 0x40 MLOAD PUSH1 0x3 SWAP3 SWAP1 SWAP3 SHL SHR PUSH1 0x1 PUSH1 0x1 PUSH1 0xA0 SHL SUB AND DUP2 MSTORE RETURN JUMPDEST CALLVALUE PUSH2 0x27F JUMPI PUSH1 0x20 CALLDATASIZE PUSH1 0x3 NOT ADD SLT PUSH2 0x27F JUMPI PUSH2 0x1567 PUSH2 0x209F JUMP JUMPDEST PUSH2 0x156F PUSH2 0x24FB JUMP JUMPDEST PUSH1 0x1 PUSH1 0x1 PUSH1 0xA0 SHL SUB AND PUSH1 0x0 SWAP1 DUP2 MSTORE PUSH1 0x6 PUSH1 0x20 MSTORE PUSH1 0x40 SWAP1 KECCAK256 DUP1 SLOAD PUSH1 0xFF NOT AND PUSH1 0x1 OR SWAP1 SSTORE STOP JUMPDEST CALLVALUE PUSH2 0x27F JUMPI PUSH1 0x0 CALLDATASIZE PUSH1 0x3 NOT ADD SLT PUSH2 0x27F JUMPI PUSH1 0x0 SLOAD PUSH1 0x40 MLOAD PUSH1 0x1 PUSH1 0x1 PUSH1 0xA0 SHL SUB SWAP1 SWAP2 AND DUP2 MSTORE PUSH1 0x20 SWAP1 RETURN JUMPDEST CALLVALUE PUSH2 0x27F JUMPI PUSH1 0x0 CALLDATASIZE PUSH1 0x3 NOT ADD SLT PUSH2 0x27F JUMPI PUSH1 0x20 PUSH1 0x9 SLOAD PUSH1 0x40 MLOAD SWAP1 DUP2 MSTORE RETURN JUMPDEST CALLVALUE PUSH2 0x27F JUMPI PUSH1 0x0 CALLDATASIZE PUSH1 0x3 NOT ADD SLT PUSH2 0x27F JUMPI PUSH2 0x15F3 PUSH2 0x24FB JUMP JUMPDEST PUSH2 0x15FB PUSH2 0x2527 JUMP JUMPDEST PUSH1 0x1 PUSH1 0xFF NOT PUSH1 0x2 SLOAD AND OR PUSH1 0x2 SSTORE PUSH32 0x62E78CEA01BEE320CD4E420270B5EA74000D11B0C9F74754EBDBFC544B05A258 PUSH1 0x20 PUSH1 0x40 MLOAD CALLER DUP2 MSTORE LOG1 STOP JUMPDEST CALLVALUE PUSH2 0x27F JUMPI PUSH1 0x20 CALLDATASIZE PUSH1 0x3 NOT ADD SLT PUSH2 0x27F JUMPI PUSH1 0x4 CALLDATALOAD PUSH1 0x8 SLOAD DUP2 LT ISZERO PUSH2 0x27F JUMPI PUSH2 0x21C PUSH2 0x5F3 PUSH2 0x58F SWAP3 PUSH1 0x8 PUSH1 0x0 MSTORE PUSH1 0x40 MLOAD SWAP3 DUP4 DUP1 SWAP3 PUSH32 0xF3F7A9FE364FAAB93B216DA50A3214154F22A0A2B415B23A84C8169E8B636EE3 ADD PUSH2 0x2194 JUMP JUMPDEST CALLVALUE PUSH2 0x27F JUMPI PUSH1 0x20 CALLDATASIZE PUSH1 0x3 NOT ADD SLT PUSH2 0x27F JUMPI PUSH1 0x4 CALLDATALOAD PUSH1 0x1 PUSH1 0x1 PUSH1 0x40 SHL SUB DUP2 GT PUSH2 0x27F JUMPI PUSH2 0x16C7 PUSH1 0x20 PUSH2 0x351 PUSH2 0x245 SWAP4 CALLDATASIZE SWAP1 PUSH1 0x4 ADD PUSH2 0x1FF3 JUMP JUMPDEST DUP2 ADD PUSH1 0x5 DUP2 MSTORE SUB ADD SWAP1 KECCAK256 PUSH1 0x40 MLOAD SWAP1 PUSH2 0x16E3 DUP3 PUSH2 0x1FE DUP2 DUP5 PUSH2 0x2194 JUMP JUMPDEST PUSH1 0x40 MLOAD PUSH2 0x16F7 DUP2 PUSH2 0x21C DUP2 PUSH1 0x1 DUP7 ADD PUSH2 0x2194 JUMP JUMPDEST PUSH1 0xFF PUSH2 0x1710 PUSH1 0x40 MLOAD PUSH2 0x223 DUP2 PUSH2 0x21C DUP2 PUSH1 0x2 DUP10 ADD PUSH2 0x2194 JUMP JUMPDEST SWAP3 PUSH1 0x1 DUP1 PUSH1 0xA0 SHL SUB DUP2 AND PUSH1 0x60 DUP7 ADD MSTORE PUSH1 0xA0 SHR AND ISZERO ISZERO PUSH1 0x80 DUP5 ADD MSTORE PUSH1 0xA0 DUP4 ADD MSTORE SUB SWAP1 RETURN JUMPDEST CALLVALUE PUSH2 0x27F JUMPI PUSH1 0x0 CALLDATASIZE PUSH1 0x3 NOT ADD SLT PUSH2 0x27F JUMPI PUSH2 0x174C PUSH2 0x24FB JUMP JUMPDEST PUSH1 0x0 DUP1 SLOAD PUSH1 0x1 PUSH1 0x1 PUSH1 0xA0 SHL SUB NOT DUP2 AND DUP3 SSTORE PUSH1 0x1 PUSH1 0x1 PUSH1 0xA0 SHL SUB AND PUSH32 0x8BE0079C531659141344CD1FD0A4F28419497F9722A3DAAFE3B4186F6B6457E0 DUP3 DUP1 LOG3 STOP JUMPDEST CALLVALUE PUSH2 0x27F JUMPI PUSH1 0x20 CALLDATASIZE PUSH1 0x3 NOT ADD SLT PUSH2 0x27F JUMPI PUSH1 0x1 PUSH1 0x1 PUSH1 0xA0 SHL SUB PUSH2 0x17AD PUSH2 0x209F JUMP JUMPDEST AND PUSH1 0x0 MSTORE PUSH1 0x6 PUSH1 0x20 MSTORE PUSH1 0x20 PUSH1 0xFF PUSH1 0x40 PUSH1 0x0 KECCAK256 SLOAD AND PUSH1 0x40 MLOAD SWAP1 ISZERO ISZERO DUP2 MSTORE RETURN JUMPDEST CALLVALUE PUSH2 0x27F JUMPI PUSH1 0x20 CALLDATASIZE PUSH1 0x3 NOT ADD SLT PUSH2 0x27F JUMPI PUSH2 0x1885 PUSH1 0x1 PUSH1 0x1 PUSH1 0xA0 SHL SUB DUP1 PUSH2 0x17F0 PUSH2 0x209F JUMP JUMPDEST AND PUSH1 0x0 MSTORE PUSH1 0x3 PUSH1 0x20 MSTORE PUSH1 0x40 PUSH1 0x0 KECCAK256 PUSH1 0x40 MLOAD SWAP2 PUSH2 0x1810 DUP4 PUSH2 0x1E2 DUP2 DUP6 PUSH2 0x2194 JUMP JUMPDEST PUSH1 0x40 MLOAD PUSH2 0x1824 DUP2 PUSH2 0x21C DUP2 PUSH1 0x1 DUP8 ADD PUSH2 0x2194 JUMP JUMPDEST PUSH1 0x40 MLOAD SWAP3 PUSH2 0x1840 DUP5 PUSH2 0x1839 DUP2 PUSH1 0x2 DUP6 ADD PUSH2 0x2194 JUMP JUMPDEST SUB DUP6 PUSH2 0x1FB7 JUMP JUMPDEST PUSH2 0x18AF PUSH1 0x40 MLOAD PUSH2 0x1857 DUP2 PUSH2 0x21C DUP2 PUSH1 0x3 DUP8 ADD PUSH2 0x2194 JUMP JUMPDEST PUSH2 0x18A1 DUP6 PUSH1 0x4 DUP6 ADD SLOAD AND SWAP7 PUSH2 0x1893 PUSH1 0x6 PUSH1 0x5 DUP8 ADD SLOAD SWAP7 ADD SLOAD SWAP7 PUSH1 0x40 MLOAD SWAP12 DUP13 SWAP12 DUP13 PUSH2 0x120 DUP1 SWAP2 MSTORE DUP14 ADD SWAP1 PUSH2 0x20D8 JUMP JUMPDEST SWAP1 DUP12 DUP3 SUB PUSH1 0x20 DUP14 ADD MSTORE PUSH2 0x20D8 JUMP JUMPDEST SWAP1 DUP10 DUP3 SUB PUSH1 0x40 DUP12 ADD MSTORE PUSH2 0x20D8 JUMP JUMPDEST SWAP1 DUP8 DUP3 SUB PUSH1 0x60 DUP10 ADD MSTORE PUSH2 0x20D8 JUMP JUMPDEST SWAP4 PUSH1 0x80 DUP7 ADD MSTORE PUSH1 0xA0 DUP6 ADD MSTORE PUSH1 0xFF DUP2 AND ISZERO ISZERO PUSH1 0xC0 DUP6 ADD MSTORE PUSH1 0xFF DUP2 PUSH1 0x8 SHR AND ISZERO ISZERO PUSH1 0xE0 DUP6 ADD MSTORE PUSH1 0x10 SHR AND PUSH2 0x100 DUP4 ADD MSTORE SUB SWAP1 RETURN JUMPDEST CALLVALUE PUSH2 0x27F JUMPI PUSH1 0x0 CALLDATASIZE PUSH1 0x3 NOT ADD SLT PUSH2 0x27F JUMPI PUSH1 0x8 SLOAD PUSH2 0x18FE DUP2 PUSH2 0x222A JUMP JUMPDEST PUSH2 0x190B PUSH1 0x40 MLOAD SWAP2 DUP3 PUSH2 0x1FB7 JUMP JUMPDEST DUP2 DUP2 MSTORE PUSH1 0x20 SWAP2 PUSH1 0x20 DUP3 ADD PUSH1 0x8 PUSH1 0x0 MSTORE PUSH32 0xF3F7A9FE364FAAB93B216DA50A3214154F22A0A2B415B23A84C8169E8B636EE3 SWAP4 PUSH1 0x0 SWAP2 JUMPDEST DUP4 DUP4 LT PUSH2 0x195D JUMPI PUSH1 0x40 MLOAD PUSH1 0x20 DUP1 DUP3 MSTORE DUP2 SWAP1 PUSH2 0x58F SWAP1 DUP3 ADD DUP9 PUSH2 0x20FD JUMP JUMPDEST PUSH1 0x1 DUP3 DUP2 SWAP3 PUSH1 0x40 MLOAD PUSH2 0x1973 DUP2 PUSH2 0x21C DUP2 DUP14 PUSH2 0x2194 JUMP JUMPDEST DUP2 MSTORE ADD SWAP7 ADD SWAP3 ADD SWAP2 SWAP5 PUSH2 0x1940 JUMP JUMPDEST CALLVALUE PUSH2 0x27F JUMPI PUSH1 0x0 CALLDATASIZE PUSH1 0x3 NOT ADD SLT PUSH2 0x27F JUMPI PUSH1 0x20 PUSH1 0xFF PUSH1 0x2 SLOAD AND PUSH1 0x40 MLOAD SWAP1 ISZERO ISZERO DUP2 MSTORE RETURN JUMPDEST CALLVALUE PUSH2 0x27F JUMPI PUSH1 0x20 DUP1 PUSH1 0x3 NOT CALLDATASIZE ADD SLT PUSH2 0x27F JUMPI PUSH1 0x4 CALLDATALOAD PUSH1 0x1 PUSH1 0x1 PUSH1 0x40 SHL SUB DUP2 GT PUSH2 0x27F JUMPI PUSH2 0x19D5 SWAP1 CALLDATASIZE SWAP1 PUSH1 0x4 ADD PUSH2 0x1FF3 JUMP JUMPDEST SWAP1 PUSH2 0x19DE PUSH2 0x2527 JUMP JUMPDEST PUSH1 0x40 MLOAD DUP3 MLOAD SWAP1 DUP3 DUP5 ADD SWAP2 PUSH2 0x19F3 DUP2 DUP4 DUP6 PUSH2 0x20B5 JUMP JUMPDEST PUSH1 0x5 SWAP1 DUP3 ADD DUP2 DUP2 MSTORE DUP3 SWAP1 SUB DUP5 ADD SWAP1 SWAP2 KECCAK256 PUSH1 0x3 ADD SLOAD PUSH1 0x1 PUSH1 0x1 PUSH1 0xA0 SHL SUB AND ISZERO PUSH2 0x1BC1 JUMPI PUSH1 0xFF PUSH1 0x3 PUSH1 0x40 MLOAD DUP6 DUP2 DUP9 MLOAD PUSH2 0x1A2B DUP2 DUP4 DUP11 PUSH2 0x20B5 JUMP JUMPDEST DUP2 ADD DUP7 DUP2 MSTORE SUB ADD SWAP1 KECCAK256 ADD SLOAD PUSH1 0xA0 SHR AND ISZERO PUSH2 0x1B85 JUMPI DUP1 PUSH1 0x40 MLOAD DUP5 DUP2 DUP8 MLOAD PUSH2 0x1A52 DUP2 DUP4 DUP10 PUSH2 0x20B5 JUMP JUMPDEST DUP2 ADD DUP5 DUP2 MSTORE SUB ADD SWAP1 KECCAK256 ADD CALLER PUSH1 0x0 MSTORE DUP4 MSTORE PUSH1 0xFF PUSH1 0x40 PUSH1 0x0 KECCAK256 SLOAD AND PUSH2 0x1B40 JUMPI DUP3 PUSH1 0x4 SWAP3 DUP3 PUSH2 0x1ABB SWAP4 PUSH1 0x40 MLOAD DUP5 DUP2 DUP11 MLOAD PUSH2 0x1A8A DUP2 DUP4 DUP10 PUSH2 0x20B5 JUMP JUMPDEST DUP2 ADD DUP5 DUP2 MSTORE SUB ADD SWAP1 KECCAK256 ADD CALLER PUSH1 0x0 MSTORE DUP4 MSTORE PUSH1 0x40 PUSH1 0x0 KECCAK256 PUSH1 0x1 PUSH1 0xFF NOT DUP3 SLOAD AND OR SWAP1 SSTORE PUSH1 0x40 MLOAD DUP1 SWAP5 DUP2 SWAP4 DUP10 MLOAD SWAP3 DUP4 SWAP2 PUSH2 0x20B5 JUMP JUMPDEST DUP3 ADD SWAP1 DUP2 MSTORE SUB ADD SWAP1 KECCAK256 ADD DUP1 SLOAD SWAP2 SWAP1 PUSH1 0x0 NOT DUP4 EQ PUSH2 0x11A1 JUMPI PUSH1 0x1 PUSH1 0x7 SWAP4 ADD SWAP1 SSTORE CALLER PUSH1 0x0 MSTORE MSTORE PUSH1 0x40 PUSH1 0x0 KECCAK256 DUP1 SLOAD PUSH1 0x1 PUSH1 0x40 SHL DUP2 LT ISZERO PUSH2 0xD36 JUMPI PUSH2 0x1B01 SWAP2 PUSH1 0x1 DUP3 ADD DUP2 SSTORE PUSH2 0x2087 JUMP JUMPDEST PUSH2 0x607 JUMPI DUP2 PUSH2 0x1B0F SWAP2 PUSH2 0x2306 JUMP JUMPDEST PUSH2 0x1B19 CALLER SWAP2 PUSH2 0x23D5 JUMP JUMPDEST PUSH32 0x66AC3C2F4044991A7E2C74D68520B04A46C2C1476AEF8E1D67FA99DD83414015 PUSH1 0x0 DUP1 LOG3 STOP JUMPDEST PUSH1 0x40 MLOAD PUSH3 0x461BCD PUSH1 0xE5 SHL DUP2 MSTORE PUSH1 0x4 DUP2 ADD DUP5 SWAP1 MSTORE PUSH1 0x18 PUSH1 0x24 DUP3 ADD MSTORE PUSH32 0x506C7567696E20616C726561647920696E7374616C6C65640000000000000000 PUSH1 0x44 DUP3 ADD MSTORE PUSH1 0x64 SWAP1 REVERT JUMPDEST PUSH1 0x40 MLOAD PUSH3 0x461BCD PUSH1 0xE5 SHL DUP2 MSTORE PUSH1 0x4 DUP2 ADD DUP5 SWAP1 MSTORE PUSH1 0x14 PUSH1 0x24 DUP3 ADD MSTORE PUSH20 0x506C7567696E206973206E6F7420616374697665 PUSH1 0x60 SHL PUSH1 0x44 DUP3 ADD MSTORE PUSH1 0x64 SWAP1 REVERT JUMPDEST PUSH1 0x40 MLOAD PUSH3 0x461BCD PUSH1 0xE5 SHL DUP2 MSTORE PUSH1 0x4 DUP2 ADD DUP5 SWAP1 MSTORE PUSH1 0x15 PUSH1 0x24 DUP3 ADD MSTORE PUSH21 0x141B1D59DA5B88191BD95CC81B9BDD08195E1A5CDD PUSH1 0x5A SHL PUSH1 0x44 DUP3 ADD MSTORE PUSH1 0x64 SWAP1 REVERT JUMPDEST CALLVALUE PUSH2 0x27F JUMPI PUSH1 0x0 CALLDATASIZE PUSH1 0x3 NOT ADD SLT PUSH2 0x27F JUMPI PUSH2 0x1C17 PUSH2 0x24FB JUMP JUMPDEST PUSH1 0x2 SLOAD PUSH1 0xFF DUP2 AND ISZERO PUSH2 0x1C56 JUMPI PUSH1 0xFF NOT AND PUSH1 0x2 SSTORE PUSH32 0x5DB9EE0A495BF2E6FF9C91A7834C1BA4FDD244A5E8AA4E537BD38AEAE4B073AA PUSH1 0x20 PUSH1 0x40 MLOAD CALLER DUP2 MSTORE LOG1 STOP JUMPDEST PUSH1 0x40 MLOAD PUSH4 0x8DFC202B PUSH1 0xE0 SHL DUP2 MSTORE PUSH1 0x4 SWAP1 REVERT JUMPDEST CALLVALUE PUSH2 0x27F JUMPI PUSH1 0x20 CALLDATASIZE PUSH1 0x3 NOT ADD SLT PUSH2 0x27F JUMPI PUSH1 0x1 PUSH1 0x1 PUSH1 0xA0 SHL SUB PUSH2 0x1C89 PUSH2 0x209F JUMP JUMPDEST AND PUSH1 0x0 MSTORE PUSH1 0x7 PUSH1 0x20 MSTORE PUSH2 0x58F PUSH2 0x1CA2 PUSH1 0x40 PUSH1 0x0 KECCAK256 PUSH2 0x2241 JUMP JUMPDEST PUSH1 0x40 MLOAD SWAP2 DUP3 SWAP2 PUSH1 0x20 DUP4 MSTORE PUSH1 0x20 DUP4 ADD SWAP1 PUSH2 0x20FD JUMP JUMPDEST CALLVALUE PUSH2 0x27F JUMPI PUSH1 0x0 CALLDATASIZE PUSH1 0x3 NOT ADD SLT PUSH2 0x27F JUMPI PUSH2 0x1CCF PUSH2 0x24FB JUMP JUMPDEST SELFBALANCE DUP1 ISZERO PUSH2 0x1D56 JUMPI PUSH1 0x0 DUP1 DUP1 DUP1 SWAP4 PUSH1 0x1 DUP1 PUSH1 0xA0 SHL SUB DUP3 SLOAD AND GAS CALL RETURNDATASIZE ISZERO PUSH2 0x1D51 JUMPI RETURNDATASIZE PUSH2 0x1CF8 DUP2 PUSH2 0x1FD8 JUMP JUMPDEST SWAP1 PUSH2 0x1D06 PUSH1 0x40 MLOAD SWAP3 DUP4 PUSH2 0x1FB7 JUMP JUMPDEST DUP2 MSTORE PUSH1 0x0 PUSH1 0x20 RETURNDATASIZE SWAP3 ADD RETURNDATACOPY JUMPDEST ISZERO PUSH2 0x1D18 JUMPI STOP JUMPDEST PUSH1 0x40 MLOAD PUSH3 0x461BCD PUSH1 0xE5 SHL DUP2 MSTORE PUSH1 0x20 PUSH1 0x4 DUP3 ADD MSTORE PUSH1 0x11 PUSH1 0x24 DUP3 ADD MSTORE PUSH17 0x15DA5D1A191C985DD85B0819985A5B1959 PUSH1 0x7A SHL PUSH1 0x44 DUP3 ADD MSTORE PUSH1 0x64 SWAP1 REVERT JUMPDEST PUSH2 0x1D11 JUMP JUMPDEST PUSH1 0x40 MLOAD PUSH3 0x461BCD PUSH1 0xE5 SHL DUP2 MSTORE PUSH1 0x20 PUSH1 0x4 DUP3 ADD MSTORE PUSH1 0x14 PUSH1 0x24 DUP3 ADD MSTORE PUSH20 0x4E6F2066756E647320746F207769746864726177 PUSH1 0x60 SHL PUSH1 0x44 DUP3 ADD MSTORE PUSH1 0x64 SWAP1 REVERT JUMPDEST CALLVALUE PUSH2 0x27F JUMPI PUSH1 0x20 DUP1 PUSH1 0x3 NOT CALLDATASIZE ADD SLT PUSH2 0x27F JUMPI PUSH2 0x1DAC PUSH2 0x209F JUMP JUMPDEST SWAP1 PUSH1 0x40 MLOAD PUSH2 0x1DB9 DUP2 PUSH2 0x1F80 JUMP JUMPDEST PUSH1 0x0 PUSH1 0xA0 PUSH1 0x60 SWAP3 DUP4 DUP2 MSTORE DUP4 DUP6 DUP3 ADD MSTORE DUP4 PUSH1 0x40 DUP3 ADD MSTORE DUP3 DUP5 DUP3 ADD MSTORE DUP3 PUSH1 0x80 DUP3 ADD MSTORE ADD MSTORE PUSH1 0x1 DUP1 PUSH1 0xA0 SHL SUB DUP1 SWAP4 AND PUSH1 0x0 MSTORE PUSH1 0x4 DUP3 MSTORE PUSH1 0x40 PUSH1 0x0 KECCAK256 SWAP1 PUSH1 0x40 MLOAD SWAP4 PUSH2 0x1DFF DUP6 PUSH2 0x1F80 JUMP JUMPDEST PUSH1 0x40 MLOAD PUSH2 0x1E10 DUP2 PUSH2 0x21C DUP2 DUP8 PUSH2 0x2194 JUMP JUMPDEST DUP6 MSTORE PUSH1 0x40 MLOAD PUSH2 0x1E26 DUP2 PUSH2 0x21C DUP2 PUSH1 0x1 DUP9 ADD PUSH2 0x2194 JUMP JUMPDEST DUP5 DUP7 ADD SWAP1 DUP2 MSTORE PUSH2 0x1EBA PUSH1 0x40 MLOAD PUSH2 0x1E43 DUP2 PUSH2 0x21C DUP2 PUSH1 0x2 DUP11 ADD PUSH2 0x2194 JUMP JUMPDEST PUSH1 0x40 DUP9 ADD SWAP1 DUP2 MSTORE PUSH1 0x3 DUP7 ADD SLOAD SWAP3 PUSH1 0x4 DUP7 DUP11 ADD SWAP8 PUSH1 0xFF DUP7 AND ISZERO ISZERO DUP10 MSTORE DUP7 PUSH1 0x80 DUP13 ADD SWAP7 PUSH1 0x8 SHR AND DUP7 MSTORE ADD SLOAD SWAP6 PUSH1 0xA0 DUP11 ADD SWAP7 DUP8 MSTORE PUSH2 0x1EAA PUSH2 0x1E94 DUP11 PUSH1 0xC0 PUSH1 0x40 MLOAD SWAP14 DUP15 SWAP14 DUP15 MSTORE MLOAD SWAP2 DUP14 ADD MSTORE PUSH1 0xE0 DUP13 ADD SWAP1 PUSH2 0x20D8 JUMP JUMPDEST SWAP3 MLOAD SWAP3 PUSH1 0x1F NOT SWAP4 DUP5 DUP13 DUP4 SUB ADD PUSH1 0x40 DUP14 ADD MSTORE PUSH2 0x20D8 JUMP JUMPDEST SWAP3 MLOAD SWAP2 DUP10 DUP5 SUB ADD SWAP1 DUP10 ADD MSTORE PUSH2 0x20D8 JUMP JUMPDEST SWAP4 MLOAD ISZERO ISZERO PUSH1 0x80 DUP7 ADD MSTORE MLOAD AND PUSH1 0xA0 DUP5 ADD MSTORE MLOAD PUSH1 0xC0 DUP4 ADD MSTORE SUB SWAP1 RETURN JUMPDEST CALLVALUE PUSH2 0x27F JUMPI PUSH1 0x20 CALLDATASIZE PUSH1 0x3 NOT ADD SLT PUSH2 0x27F JUMPI PUSH1 0x4 CALLDATALOAD PUSH1 0xA SLOAD DUP2 LT ISZERO PUSH2 0x27F JUMPI PUSH1 0xA PUSH1 0x0 MSTORE PUSH32 0xC65A7BB8D6351C1CF70C95A316CC6A92839C986682D98BC35F958F4883F9D2A8 ADD SLOAD PUSH1 0x40 MLOAD PUSH1 0x1 PUSH1 0x1 PUSH1 0xA0 SHL SUB SWAP1 SWAP2 AND DUP2 MSTORE PUSH1 0x20 SWAP1 RETURN JUMPDEST CALLVALUE PUSH2 0x27F JUMPI PUSH1 0x20 CALLDATASIZE PUSH1 0x3 NOT ADD SLT PUSH2 0x27F JUMPI PUSH1 0x4 CALLDATALOAD PUSH1 0x1 PUSH1 0x1 PUSH1 0x40 SHL SUB DUP2 GT PUSH2 0x27F JUMPI PUSH2 0x1F66 PUSH1 0x20 PUSH2 0x349 PUSH1 0x3 SWAP4 CALLDATASIZE SWAP1 PUSH1 0x4 ADD PUSH2 0x1FF3 JUMP JUMPDEST PUSH1 0x5 SWAP1 DUP3 ADD SWAP1 DUP2 MSTORE SUB ADD SWAP1 KECCAK256 ADD DUP1 SLOAD PUSH1 0xFF PUSH1 0xA0 SHL NOT AND SWAP1 SSTORE STOP JUMPDEST PUSH1 0xC0 DUP2 ADD SWAP1 DUP2 LT PUSH1 0x1 PUSH1 0x1 PUSH1 0x40 SHL SUB DUP3 GT OR PUSH2 0xD36 JUMPI PUSH1 0x40 MSTORE JUMP JUMPDEST PUSH2 0x140 DUP2 ADD SWAP1 DUP2 LT PUSH1 0x1 PUSH1 0x1 PUSH1 0x40 SHL SUB DUP3 GT OR PUSH2 0xD36 JUMPI PUSH1 0x40 MSTORE JUMP JUMPDEST SWAP1 PUSH1 0x1F DUP1 NOT SWAP2 ADD AND DUP2 ADD SWAP1 DUP2 LT PUSH1 0x1 PUSH1 0x1 PUSH1 0x40 SHL SUB DUP3 GT OR PUSH2 0xD36 JUMPI PUSH1 0x40 MSTORE JUMP JUMPDEST PUSH1 0x1 PUSH1 0x1 PUSH1 0x40 SHL SUB DUP2 GT PUSH2 0xD36 JUMPI PUSH1 0x1F ADD PUSH1 0x1F NOT AND PUSH1 0x20 ADD SWAP1 JUMP JUMPDEST DUP2 PUSH1 0x1F DUP3 ADD SLT ISZERO PUSH2 0x27F JUMPI DUP1 CALLDATALOAD SWAP1 PUSH2 0x200A DUP3 PUSH2 0x1FD8 JUMP JUMPDEST SWAP3 PUSH2 0x2018 PUSH1 0x40 MLOAD SWAP5 DUP6 PUSH2 0x1FB7 JUMP JUMPDEST DUP3 DUP5 MSTORE PUSH1 0x20 DUP4 DUP4 ADD ADD GT PUSH2 0x27F JUMPI DUP2 PUSH1 0x0 SWAP3 PUSH1 0x20 DUP1 SWAP4 ADD DUP4 DUP7 ADD CALLDATACOPY DUP4 ADD ADD MSTORE SWAP1 JUMP JUMPDEST PUSH1 0x9 SLOAD DUP2 LT ISZERO PUSH2 0x2071 JUMPI PUSH1 0x9 PUSH1 0x0 MSTORE PUSH32 0x6E1540171B6C0C960B71A7020D9F60077F6AF931A8BBF590DA0223DACF75C7AF ADD SWAP1 PUSH1 0x0 SWAP1 JUMP JUMPDEST PUSH4 0x4E487B71 PUSH1 0xE0 SHL PUSH1 0x0 MSTORE PUSH1 0x32 PUSH1 0x4 MSTORE PUSH1 0x24 PUSH1 0x0 REVERT JUMPDEST DUP1 SLOAD DUP3 LT ISZERO PUSH2 0x2071 JUMPI PUSH1 0x0 MSTORE PUSH1 0x20 PUSH1 0x0 KECCAK256 ADD SWAP1 PUSH1 0x0 SWAP1 JUMP JUMPDEST PUSH1 0x4 CALLDATALOAD SWAP1 PUSH1 0x1 PUSH1 0x1 PUSH1 0xA0 SHL SUB DUP3 AND DUP3 SUB PUSH2 0x27F JUMPI JUMP JUMPDEST PUSH1 0x0 JUMPDEST DUP4 DUP2 LT PUSH2 0x20C8 JUMPI POP POP PUSH1 0x0 SWAP2 ADD MSTORE JUMP JUMPDEST DUP2 DUP2 ADD MLOAD DUP4 DUP3 ADD MSTORE PUSH1 0x20 ADD PUSH2 0x20B8 JUMP JUMPDEST SWAP1 PUSH1 0x20 SWAP2 PUSH2 0x20F1 DUP2 MLOAD DUP1 SWAP3 DUP2 DUP6 MSTORE DUP6 DUP1 DUP7 ADD SWAP2 ADD PUSH2 0x20B5 JUMP JUMPDEST PUSH1 0x1F ADD PUSH1 0x1F NOT AND ADD ADD SWAP1 JUMP JUMPDEST SWAP1 DUP1 DUP3 MLOAD SWAP1 DUP2 DUP2 MSTORE PUSH1 0x20 DUP1 SWAP2 ADD SWAP3 PUSH1 0x20 DUP1 DUP5 PUSH1 0x5 SHL DUP4 ADD ADD SWAP6 ADD SWAP4 PUSH1 0x0 SWAP2 JUMPDEST DUP5 DUP4 LT PUSH2 0x212C JUMPI POP POP POP POP POP POP SWAP1 JUMP JUMPDEST SWAP1 SWAP2 SWAP3 SWAP4 SWAP5 SWAP6 DUP5 DUP1 PUSH2 0x214A PUSH1 0x1 SWAP4 PUSH1 0x1F NOT DUP7 DUP3 SUB ADD DUP8 MSTORE DUP11 MLOAD PUSH2 0x20D8 JUMP JUMPDEST SWAP9 ADD SWAP4 ADD SWAP4 ADD SWAP2 SWAP5 SWAP4 SWAP3 SWAP1 PUSH2 0x211C JUMP JUMPDEST SWAP1 PUSH1 0x1 DUP3 DUP2 SHR SWAP3 AND DUP1 ISZERO PUSH2 0x218A JUMPI JUMPDEST PUSH1 0x20 DUP4 LT EQ PUSH2 0x2174 JUMPI JUMP JUMPDEST PUSH4 0x4E487B71 PUSH1 0xE0 SHL PUSH1 0x0 MSTORE PUSH1 0x22 PUSH1 0x4 MSTORE PUSH1 0x24 PUSH1 0x0 REVERT JUMPDEST SWAP2 PUSH1 0x7F AND SWAP2 PUSH2 0x2169 JUMP JUMPDEST DUP1 SLOAD PUSH1 0x0 SWAP4 SWAP3 PUSH2 0x21A3 DUP3 PUSH2 0x215A JUMP JUMPDEST SWAP2 DUP3 DUP3 MSTORE PUSH1 0x20 SWAP4 PUSH1 0x1 SWAP2 PUSH1 0x1 DUP2 AND SWAP1 DUP2 PUSH1 0x0 EQ PUSH2 0x220B JUMPI POP PUSH1 0x1 EQ PUSH2 0x21CA JUMPI JUMPDEST POP POP POP POP POP JUMP JUMPDEST SWAP1 SWAP4 SWAP5 SWAP6 POP PUSH1 0x0 SWAP3 SWAP2 SWAP3 MSTORE DUP4 PUSH1 0x0 KECCAK256 SWAP3 DUP5 PUSH1 0x0 SWAP5 JUMPDEST DUP4 DUP7 LT PUSH2 0x21F7 JUMPI POP POP POP POP ADD ADD SWAP1 CODESIZE DUP1 DUP1 DUP1 DUP1 PUSH2 0x21C3 JUMP JUMPDEST DUP1 SLOAD DUP6 DUP8 ADD DUP4 ADD MSTORE SWAP5 ADD SWAP4 DUP6 SWAP1 DUP3 ADD PUSH2 0x21DF JUMP JUMPDEST PUSH1 0xFF NOT AND DUP7 DUP6 ADD MSTORE POP POP POP SWAP1 ISZERO ISZERO PUSH1 0x5 SHL ADD ADD SWAP2 POP CODESIZE DUP1 DUP1 DUP1 DUP1 PUSH2 0x21C3 JUMP JUMPDEST PUSH1 0x1 PUSH1 0x1 PUSH1 0x40 SHL SUB DUP2 GT PUSH2 0xD36 JUMPI PUSH1 0x5 SHL PUSH1 0x20 ADD SWAP1 JUMP JUMPDEST SWAP1 DUP2 SLOAD PUSH2 0x224D DUP2 PUSH2 0x222A JUMP JUMPDEST SWAP3 PUSH1 0x40 SWAP4 PUSH2 0x225E PUSH1 0x40 MLOAD SWAP2 DUP3 PUSH2 0x1FB7 JUMP JUMPDEST DUP3 DUP2 MSTORE DUP1 SWAP5 PUSH1 0x20 DUP1 SWAP3 ADD SWAP3 PUSH1 0x0 MSTORE PUSH1 0x20 PUSH1 0x0 KECCAK256 SWAP1 PUSH1 0x0 SWAP4 JUMPDEST DUP6 DUP6 LT PUSH2 0x2285 JUMPI POP POP POP POP POP POP JUMP JUMPDEST PUSH1 0x1 DUP5 DUP2 SWAP3 DUP5 MLOAD PUSH2 0x229A DUP2 PUSH2 0x21C DUP2 DUP11 PUSH2 0x2194 JUMP JUMPDEST DUP2 MSTORE ADD SWAP4 ADD SWAP5 ADD SWAP4 SWAP2 PUSH2 0x2276 JUMP JUMPDEST DUP2 DUP2 LT PUSH2 0x22B3 JUMPI POP POP JUMP JUMPDEST PUSH1 0x0 DUP2 SSTORE PUSH1 0x1 ADD PUSH2 0x22A8 JUMP JUMPDEST SWAP2 SWAP1 PUSH1 0x1F DUP2 GT PUSH2 0x22CE JUMPI POP POP POP JUMP JUMPDEST PUSH2 0x22FA SWAP3 PUSH1 0x0 MSTORE PUSH1 0x20 PUSH1 0x0 KECCAK256 SWAP1 PUSH1 0x20 PUSH1 0x1F DUP5 ADD PUSH1 0x5 SHR DUP4 ADD SWAP4 LT PUSH2 0x22FC JUMPI JUMPDEST PUSH1 0x1F ADD PUSH1 0x5 SHR ADD SWAP1 PUSH2 0x22A8 JUMP JUMPDEST JUMP JUMPDEST SWAP1 SWAP2 POP DUP2 SWAP1 PUSH2 0x22ED JUMP JUMPDEST SWAP2 SWAP1 SWAP2 DUP3 MLOAD PUSH1 0x1 PUSH1 0x1 PUSH1 0x40 SHL SUB DUP2 GT PUSH2 0xD36 JUMPI PUSH2 0x232D DUP2 PUSH2 0x2327 DUP5 SLOAD PUSH2 0x215A JUMP JUMPDEST DUP5 PUSH2 0x22BF JUMP JUMPDEST PUSH1 0x20 DUP1 PUSH1 0x1F DUP4 GT PUSH1 0x1 EQ PUSH2 0x2370 JUMPI POP DUP2 SWAP1 PUSH2 0x2361 SWAP4 SWAP5 SWAP6 PUSH1 0x0 SWAP3 PUSH2 0x2365 JUMPI JUMPDEST POP POP DUP2 PUSH1 0x1 SHL SWAP2 PUSH1 0x0 NOT SWAP1 PUSH1 0x3 SHL SHR NOT AND OR SWAP1 JUMP JUMPDEST SWAP1 SSTORE JUMP JUMPDEST ADD MLOAD SWAP1 POP CODESIZE DUP1 PUSH2 0x234C JUMP JUMPDEST SWAP1 PUSH1 0x1F NOT DUP4 AND SWAP6 DUP5 PUSH1 0x0 MSTORE PUSH1 0x20 PUSH1 0x0 KECCAK256 SWAP3 PUSH1 0x0 SWAP1 JUMPDEST DUP9 DUP3 LT PUSH2 0x23BD JUMPI POP POP DUP4 PUSH1 0x1 SWAP6 SWAP7 SWAP8 LT PUSH2 0x23A4 JUMPI JUMPDEST POP POP POP DUP2 SHL ADD SWAP1 SSTORE JUMP JUMPDEST ADD MLOAD PUSH1 0x0 NOT PUSH1 0xF8 DUP5 PUSH1 0x3 SHL AND SHR NOT AND SWAP1 SSTORE CODESIZE DUP1 DUP1 PUSH2 0x239A JUMP JUMPDEST DUP1 PUSH1 0x1 DUP6 SWAP7 DUP3 SWAP5 SWAP7 DUP7 ADD MLOAD DUP2 SSTORE ADD SWAP6 ADD SWAP4 ADD SWAP1 PUSH2 0x2385 JUMP JUMPDEST PUSH2 0x23ED SWAP1 PUSH1 0x20 PUSH1 0x40 MLOAD SWAP3 DUP3 DUP5 DUP1 SWAP5 MLOAD SWAP4 DUP5 SWAP3 ADD PUSH2 0x20B5 JUMP JUMPDEST DUP2 ADD SUB SWAP1 KECCAK256 SWAP1 JUMP JUMPDEST SWAP1 DUP1 DUP3 EQ PUSH2 0x24CF JUMPI PUSH2 0x2407 DUP2 SLOAD PUSH2 0x215A JUMP JUMPDEST SWAP1 PUSH1 0x1 PUSH1 0x1 PUSH1 0x40 SHL SUB DUP3 GT PUSH2 0xD36 JUMPI PUSH2 0x242A DUP3 PUSH2 0x2424 DUP6 SLOAD PUSH2 0x215A JUMP JUMPDEST DUP6 PUSH2 0x22BF JUMP JUMPDEST PUSH1 0x0 SWAP1 PUSH1 0x1F DUP4 GT PUSH1 0x1 EQ PUSH2 0x2465 JUMPI PUSH2 0x2361 SWAP3 SWAP2 PUSH1 0x0 SWAP2 DUP4 PUSH2 0x245A JUMPI POP POP DUP2 PUSH1 0x1 SHL SWAP2 PUSH1 0x0 NOT SWAP1 PUSH1 0x3 SHL SHR NOT AND OR SWAP1 JUMP JUMPDEST ADD SLOAD SWAP1 POP CODESIZE DUP1 PUSH2 0x234C JUMP JUMPDEST DUP2 MSTORE PUSH1 0x20 DUP1 DUP3 KECCAK256 DUP5 DUP4 MSTORE DUP2 DUP4 KECCAK256 SWAP3 SWAP2 PUSH1 0x1F NOT DUP6 AND SWAP1 DUP4 SWAP1 JUMPDEST DUP3 DUP3 LT PUSH2 0x24B6 JUMPI POP POP SWAP1 DUP5 PUSH1 0x1 SWAP6 SWAP5 SWAP4 SWAP3 LT PUSH2 0x249D JUMPI POP POP POP DUP2 SHL ADD SWAP1 SSTORE JUMP JUMPDEST ADD SLOAD PUSH1 0x0 NOT PUSH1 0xF8 DUP5 PUSH1 0x3 SHL AND SHR NOT AND SWAP1 SSTORE CODESIZE DUP1 DUP1 PUSH2 0x239A JUMP JUMPDEST DUP5 SWAP6 DUP2 SWAP3 SWAP6 DUP6 ADD SLOAD DUP2 SSTORE PUSH1 0x1 DUP1 SWAP2 ADD SWAP7 ADD SWAP5 ADD SWAP1 PUSH2 0x247D JUMP JUMPDEST POP POP JUMP JUMPDEST SWAP1 SWAP2 PUSH2 0x24EA PUSH2 0x24F8 SWAP4 PUSH1 0x40 DUP5 MSTORE PUSH1 0x40 DUP5 ADD SWAP1 PUSH2 0x20D8 JUMP JUMPDEST SWAP2 PUSH1 0x20 DUP2 DUP5 SUB SWAP2 ADD MSTORE PUSH2 0x20D8 JUMP JUMPDEST SWAP1 JUMP JUMPDEST PUSH1 0x0 SLOAD PUSH1 0x1 PUSH1 0x1 PUSH1 0xA0 SHL SUB AND CALLER SUB PUSH2 0x250F JUMPI JUMP JUMPDEST PUSH1 0x40 MLOAD PUSH4 0x118CDAA7 PUSH1 0xE0 SHL DUP2 MSTORE CALLER PUSH1 0x4 DUP3 ADD MSTORE PUSH1 0x24 SWAP1 REVERT JUMPDEST PUSH1 0xFF PUSH1 0x2 SLOAD AND PUSH2 0x2533 JUMPI JUMP JUMPDEST PUSH1 0x40 MLOAD PUSH4 0xD93C0665 PUSH1 0xE0 SHL DUP2 MSTORE PUSH1 0x4 SWAP1 REVERT JUMPDEST PUSH1 0x9 SLOAD SWAP1 PUSH1 0x0 JUMPDEST DUP3 DUP2 LT PUSH2 0x255B JUMPI POP POP POP PUSH1 0x0 SWAP1 JUMP JUMPDEST PUSH2 0x2564 DUP2 PUSH2 0x203A JUMP JUMPDEST SWAP1 SLOAD PUSH1 0x3 SWAP2 SWAP1 SWAP2 SHL SHR PUSH1 0x1 PUSH1 0x1 PUSH1 0xA0 SHL SUB SWAP1 DUP2 AND SWAP1 DUP4 AND EQ PUSH2 0x2588 JUMPI PUSH1 0x1 ADD PUSH2 0x254C JUMP JUMPDEST POP POP POP PUSH1 0x1 SWAP1 JUMP INVALID LOG2 PUSH5 0x6970667358 0x22 SLT KECCAK256 DUP16 0xC6 0xCA MSTORE8 0xDD 0xE4 PUSH17 0x3A2BEBBD0746EEFB211652315BB95F9762 PUSH28 0x27057A9B1FF03A64736F6C6343000818003300000000000000000000 "},"methodIdentifiers":{"activatePlugin(string)":"ddd97a02","addAddressLabel(address,string,string,string)":"bb17754e","addVerifier(address)":"9000b3d6","addressLabels(address)":"fa6ed04a","allPluginIds(uint256)":"83b1189f","contracts(address)":"69dc9ff3","deactivatePlugin(string)":"0e2b40d4","getAddressLabel(address)":"2af16d6a","getAllPluginIds()":"69363f2a","getContractInfo(address)":"cd481e51","getLabeledAddressesCount()":"b911f62c","getUserInstalledPlugins(address)":"3e7d5158","getVerifiedContractsCount()":"8da43939","installPlugin(string)":"40c89eff","isPluginInstalledByUser(string,address)":"bdc2b55b","labelSubmissionFee()":"bbe35257","labeledAddresses(uint256)":"11f1675c","owner()":"8da5cb5b","pause()":"8456cb59","paused()":"5c975abb","plugins(string)":"798b4c57","registerPlugin(string,string,string,string)":"96ce2674","removeVerifier(address)":"ca2dfd0a","renounceOwnership()":"715018a6","setLabelSubmissionFee(uint256)":"9e9afb50","setVerificationFee(uint256)":"aae9d5f2","transferOwnership(address)":"f2fde38b","uninstallPlugin(string)":"a0cdf1a5","unpause()":"3f4ba83a","userInstalledPlugins(address,uint256)":"cb2825de","verificationFee()":"a8c278a2","verifiedContracts(uint256)":"902be894","verifiers(address)":"6c824487","verifyContract(address,string,string,string,string,bool,address,string[])":"aa61b60c","withdraw()":"3ccfd60b"}}}}}